:100000000C948B020C94D2020C94D2020C94D20267
:100010000C94D2020C94D2020C94D2020C94D20210
:100020000C94D2020C94D2020C94F91F0C94B51FBC
:100030000C94F3240C94D2020C94D2020C94D202AD
:100040000C94D2020C942D250C94D2020C94D20262
:100050000C941A250C94CF240C94D2020C94D20246
:100060000C94D2020C94D2020C94D2020C94D202C0
:100070000C94D2020C94D2020C94D2020C94D202B0
:100080000C94D2020C94D2020C94D2020C94D202A0
:100090000C94D2020C94D2020C94D2020C94D20290
:1000A0000C94D2020C94D2020C94D20200000000F4
:1000B0000000000000000000000000000000000040
:1000C0000000000000000000000000000000000030
:1000D0007E0F00D4FFFFFFC7000000780000000083
:1000E000000000002A2B2800000000000000000093
:1000F0000000000000000029000000002C1E342039
:10010000212224342627252E362D3738271E1F205E
:100110002122232425263333362E37381F040506A3
:100120000708090A0B0C0D0E0F10111213141516E7
:100130001718191A1B1C1D2F3130232D35040506E5
:100140000708090A0B0C0D0E0F10111213141516C7
:100150001718191A1B1C1D2F3130354C00010101D5
:100160000101010101010202020202020202020374
:100170000303030303030304040404040404050544
:100180000505050606060606070707070708080807
:1001900008090909090A0A0A0B0B0B0C0C0C0D0DB6
:1001A0000D0E0E0E0F0F0F1010111111121213134E
:1001B0001414151516161717181819191A1A1B1BC7
:1001C0001C1D1D1E1E1F2020212222232424252623
:1001D00026272829292A2B2C2D2D2E2F303132325B
:1001E000333435363738393A3B3C3D3E3F40414267
:1001F000434445464748494A4C4D4E4F505153544D
:10020000555658595A5B5D5E5F6162646566686900
:100210006B6C6D6F7072737577787A7B7D7E808280
:10022000838587888A8C8E8F91939596989A9C9EC9
:10023000A0A2A3A5A7A9ABADAFB1B3B5B7BABCBED9
:10024000C0C2C4C6C9CBCDCFD1D4D6D8DBDDDFE2A6
:10025000E4E7E9EBEEF0F3F5F8FAFDFFFFAA7F55CE
:10026000402223252628292A2C2D2F3032333536BB
:10027000383A3B3D3E4042434547494A4C4E505137
:10028000535557595A5C5E6062646668696B6D6F5E
:1002900071737577797B7D7F81838587898A8C8E61
:1002A00090929496989A9C9E9FA1A3A5A7A8AAAC69
:1002B000AEAFB1B3B4B6B8B9BBBCBEBFC1C2C3C5A3
:1002C000C6C7C9CACBCCCDCED0D1D2D2D3D4D5D645
:1002D000D7D7D8D9D9DADADBDBDBDCDCDCDCDCDD78
:1002E000DDDDDDDCDCDCDCDCDBDBDBDADAD9D9D85C
:1002F000D7D7D6D5D4D3D2D2D1D0CECDCCCBCAC9F4
:10030000C7C6C5C3C2C1BFBEBCBBB9B8B6B4B3B122
:10031000AFAEACAAA8A7A5A3A19F9E9C9A989694BD
:1003200092908E8C8A89878583817F7D7B79777592
:1003300073716F6D6B6968666462605E5C5A595771
:10034000555351504E4C4A4947454342403E3D3B30
:100350003A3836353332302F2D2C2A2928262523BA
:10036000225355425343524942450048656C6C6FD5
:1003700020576F726C642100295D2A5D2D002200D8
:100380001500130057001E0001512000500A4F0AAB
:10039000C35CC45CC75CC65CC95CC85CCB5CCA5C43
:1003A00001000100010001001E0F0500047F3F1F36
:1003B000643214643214783C1E1E140A05050109C7
:1003C00080A101850319012AB700150126B7009500
:1003D0000175108100C0050C0901A10185041901F6
:1003E0002AA002150126A002950175108100C00502
:1003F000010906A101050719E029E7150025019566
:100400000875018102950175088101050719002908
:10041000FF150026FF0095067508810005081901E3
:100420002905950575019102950175039101C00992
:10043000029F00040100A0FA090400000103010169
:100440000009211101000122400007058103080075
:100450000A09040100010300000009211101000143
:100460002232000705820320000A080B0202010164
:10047000000009040200000101000009240100013C
:10048000090001030904030002010300000724011D
:1004900000014100062402010100062402020200BC
:1004A00009240301030102010009240302040101DC
:1004B00001000905040240000500000525010101B5
:1004C0000905830240000500000525010103120112
:1004D000100100000008A803E9A4010001020001C6
:1004E00014034C0069006C0069007400680020006F
:1004F0003100320000001A034400610074007500EE
:100500006C00610062002000540065006300680018
:1005100000000403090411241FBECFEFDAE0DEBFA0
:10052000CDBF04B603FE27C08091D4039091D503BC
:10053000A091D603B091D7038730904BA740B04B22
:10054000D1F41092D4031092D5031092D6031092D6
:10055000D70314BE84B7877F84BF0FB6F894A895DD
:1005600080916000886180936000109260000FBEEF
:10057000E0E0F8E3099523E0ACE9B1E001C01D92A9
:10058000A43DB207E1F711E0A0E0B1E0E8ECFDE442
:1005900002C005900D92AC39B107D9F70E94D02066
:1005A0000C94AA260C940000CF92DF92EF92FF9257
:1005B0000F931F93CF93DF9300D00F92CDB7DEB789
:1005C0007C01162FD42EC22E809105038430B9F5FC
:1005D000E091FA02F091FB02309709F440C0C701A4
:1005E000019763E070E00E945925CB01880F991FA5
:1005F000860F971F19834A83CB824E2D481B9E017D
:100600002F5F3F4FBC0180EE92E00995E091FE0222
:10061000F091FF02309739F00C2D2D2D412FB701AD
:1006200080EE92E009950F900F900F90DF91CF919F
:100630001F910F91FF90EF90DF90CF90089582E08F
:10064000E816F10409F45AC083E0E816F104A9F0B1
:1006500081E0E816F10409F484C0F12CE12CE0916A
:10066000FC02F091FD02309789F20C2D2D2D412FC7
:10067000B70180EE92E00995C9CF862F807F803A3E
:1006800011F188F48038D1F0E091E402F091E502B4
:10069000803929F7309719F3123F49F12C2D4D2D50
:1006A000612F6F7027C0803E99F0803FB1F0E091DC
:1006B000E202F091E302803B91F6ECCFE091E6029A
:1006C000F091E702E7CFE091E802F091E902E2CF92
:1006D000E091EA02F091EB02DDCF623F09F0BFCF7B
:1006E000E091EC02F091ED02309709F4B8CF2C2D97
:1006F0004D2D62EF80EE92E0099588CF862F807FA6
:10070000803DB9F0803FD1F0E091EE02F091EF0230
:10071000803C09F0A4CF309709F4A1CF812F8D7FC1
:100720004D2D612F6F70813FC9F080EE92E00995E9
:100730006DCFE091F002F091F102EDCFE091F20285
:10074000F091F302633F39F0613F09F088CFE09107
:10075000F402F091F502309709F481CF4D2D612F0D
:10076000E4CFE091F602F091F702683F38F4663F7B
:1007700009F075CFE091F802F091F902309709F491
:100780006ECF612F80EE92E0099540CFE8EDF0E06A
:1007900080818E7F80831092E2001092DA001092A6
:1007A000E100A0EEB0E08C9181608C9380818F7726
:1007B000808319BCA7EDB0E08C918E7F8C938081F3
:1007C0008F7E80831092C90208952091E4003091B9
:1007D000E50095E6A9012091EC00822F817020FFB1
:1007E00006C08091E80080FF06C080E00895209157
:1007F000E80022FD1AC08091D602882389F0853056
:1008000089F08091EB0085FD0FC02091E4003091CC
:10081000E50042175307F9F29150E1F684E008959C
:1008200082E0089583E0089581E00895EF92FF92B9
:100830000F931F93CF937C018B010E94E503C82F78
:10084000811117C08091E80085FD0BC08091E80000
:100850008E778093E8000E94E503882399F3C82FE0
:1008600008C0F70181917F018093F10001501109C7
:1008700049F78C2FCF911F910F91FF90EF90089522
:100880008091D80287FF13C08091E80082FF06C0E4
:100890008091E8008B778093E80004C08091D602B5
:1008A0008111F2CF08958091D6028823D9F38091E7
:1008B000E80080FFF8CF8091E8008E77ECCF982F8A
:1008C0009093E900242F762F50E0891731F0709132
:1008D000EC002091ED005091F00021FD07C09F5FDA
:1008E000973071F78093E90081E008953091EB0033
:1008F0003E7F3093EB003091ED003D7F3093ED0073
:100900003091EB0031603093EB007093EC0020935A
:10091000ED005093F0002091EE0027FDE0CF80E045
:100920000895CF92DF92EF92FF920F931F93CF9390
:10093000DF93C8EDD0E088818F7E8883E7EDF0E01B
:1009400080818160808384E082BF81E08093C902DE
:1009500088818E7F888302EE10E0F8011082109269
:10096000DA0081EEC82ED12CF601108288818F77B3
:10097000888388818068888388818F7D888319BC7B
:100980001092D6021092D7021092D5021092D40281
:1009900090EEE92EF12CF70180818B7F8083888196
:1009A0008160888342E060E080E00E945F04F6019D
:1009B00080818E7F8083F801808181608083808147
:1009C00088608083F70180818E7F80838881806149
:1009D0008883DF91CF911F910F91FF90EF90DF906F
:1009E000CF900895FC018091DE029091DF0286177E
:1009F0009707A0F06115710529F49091E8009E77A2
:100A00009093E80090E06115710551F4911108C0D0
:100A10008091E80082FF34C080E00895BC01F2CFED
:100A20008091D6028823C1F18530C1F18091E80020
:100A300083FD30C08091E80082FDEACF8091E8001C
:100A400080FFE1CF8091F3002091F200382F6115F3
:100A5000710519F02830310558F091E02830310542
:100A600009F090E02091E8002E772093E800CBCFAA
:100A700081918093F100615071092F5F3F4FE7CF63
:100A80008091D602882341F0853041F08091E800C2
:100A900083FFBECF81E0089582E0089583E008954A
:100AA000089580E008950895089508958091CB02F7
:100AB0000895982F907F903BE9F040F49039D1F061
:100AC000903AC1F09038B1F080E00895903D19F06F
:100AD00020F4903CC9F782E00895903E59F0903F91
:100AE00099F7815F8F3080F7E82FF0E0EB57FE4FEA
:100AF0008081089583E00895DF92EF92FF920F9333
:100B00001F93CF93DF9300D000D0CDB7DEB77B012A
:100B1000142FD22E4A832B830C83842F0E945905D5
:100B2000811141C082E0E816F104C1F183E0E816CA
:100B3000F10439F0EA94EF2829F5173F29F485E00C
:100B400004C087E0073F09F084E089838091D602E2
:100B50008430C1F4809113018F708093E90050E0DC
:100B600040E064E070E0CE0101960E94160481111D
:100B700009C08091E80085FD05C08091E8008E776E
:100B80008093E8000F900F900F900F90DF91CF911E
:100B90001F910F91FF90EF90DF90089587EFD8128B
:100BA000D3CF86E0D2CF12951F701983CFCFCF92CB
:100BB000DF92EF92FF920F931F93CF93DF9300D0BA
:100BC00000D000D00F92CDB7DEB78C0108511F4F77
:100BD0008091D602843009F087C0809118018F700F
:100BE0008093E9008091E80082FF7EC08091E80058
:100BF00085FF7AC00E94E503811113C084E0E82ECE
:100C0000F12CCE0101966C018091E80085FD61C058
:100C10008091E8008B778093E8000E94E5038823A9
:100C200099F38091E80085FD05C08091E8008B77FD
:100C30008093E800FA808F2D0E945905282FFD82AD
:100C40008B818E838C818F8321110BC089818430AD
:100C500041F1873031F1863031F121E0853009F002
:100C6000B7CF30E0E5E0F0E0EC0FFD1FE30FF11D42
:100C7000F0804FB7F894D8011196EC911197F0E0FD
:100C8000CF01019612966C9170E00E946D25D801FB
:100C90005C915817190649F44FBF3F5F321710F3A4
:100CA00097CF23E0DECF22E0DCCF13968D919C918D
:100CB0001497E80FF91FF08211968C91119790E02C
:100CC000019612966C9170E00E946D25F801818367
:100CD000E3CF8091F100D6018D936D01B1E0EB1A65
:100CE000F10809F091CF9DCF27960FB6F894DEBF9B
:100CF0000FBECDBFDF91CF911F910F91FF90EF906D
:100D0000DF90CF9008952FB7F8948091CD03909104
:100D1000CE03A091CF03B091D0032FBF089580914F
:100D2000A00281111092A002089580919F029091DB
:100D30009E02892B90919D02892B80939E01909118
:100D4000A002992391F0892B80939E0120E080EAF4
:100D500091E0FC013191CF0131112F5FF1E0863A32
:100D60009F07B9F721110E948F06E091AF02F09121
:100D7000B002309731F00280F381E02D8EE991E0EE
:100D800009940895E0EAF1E09191891303C0DF012D
:100D900011971C9291E0E63AF907B1F70895A0EA9D
:100DA000B1E0EFEF90E02D91821751F0EF3F19F491
:100DB000211101C0E92F9F5F9630A9F7EF3F09F499
:100DC00008950E2E000CFF0BE256FE4F828308950D
:100DD000990F990F890F982F97708695869586950C
:100DE00025E0829FF0011124EE56FD4F50E040E0D7
:100DF00080E0219130E0092E02C0369527950A94B3
:100E0000E2F721703327042E01C0220F0A94EAF77B
:100E1000822B4F5F5F4F4530510559F70895990F69
:100E2000990F890F982F977041E001C0440F9A9550
:100E3000EAF786958695869595E0899FF0011124BD
:100E4000EE56FD4F30E020E070E05191DF01119748
:100E5000CB01022E02C0969587950A94E2F7817025
:100E600081958527842385278C932F5F3F4F2530DD
:100E7000310559F70895809191029091600298137D
:100E800001C008958F5F8770FACF882341F0809565
:100E900090919F02892380939F020C949506089558
:100EA000882339F090919F02982B90939F020C9485
:100EB0009506089520915602309157022817390758
:100EC00071F09093570280935602E091AF02F09137
:100ED000B002309721F00084F185E02D0994089547
:100EE00020915402309155022817390771F09093E0
:100EF000550280935402E091AF02F091B002309716
:100F000021F00680F781E02D0994089590E080E0BB
:100F10000E94700790E080E00E945A0710929E02A3
:100F200010929D020C9495066093A8027093A902FA
:100F30008093AA029093AB020C9486070F931F93A1
:100F400041E050E060E070E004C0440F551F661FB0
:100F5000771F8A95D2F7CB01BA016095709580957D
:100F600090950091A8021091A9022091AA023091B7
:100F7000AB0260237123822393231F910F910C9462
:100F8000940790919C028095892380939C02282F3E
:100F9000277071F4282F082E000C330B92171306BC
:100FA00039F08595859585950E949E0710929C0243
:100FB00008950F931F9341E050E060E070E004C09B
:100FC000440F551F661F771F8A95D2F78091A8029C
:100FD0009091A902A091AA02B091AB028A019B0153
:100FE000082B192B2A2B3B2BC901B8011F910F91FC
:100FF0000C9494076093A1027093A2028093A302C1
:101000009093A4020C948607E091AF02F091B00295
:10101000309721F00190F081E02D099480E008954F
:10102000882309F452C0823871F40E94040881FFB9
:101030004CC089E30E94CF060E94950689E30E9476
:10104000C2060C949506833859F40E94040880FF68
:101050003CC083E50E94CF060E94950683E5EFCF52
:10106000843859F40E94040882FF2FC087E40E944C
:10107000CF060E94950687E4E2CF9CEF980F913A45
:10108000F0F290E2980F983088F4877021E030E019
:10109000A90102C0440F551F8A95E2F7CA01809545
:1010A00090919F02892380939F02CBCF9BE5980F5D
:1010B000933020F490E080E00C947007885A8731D8
:1010C00020F490E080E00C945A070895CF92DF92CC
:1010D000EF92FF92863088F5811130C02091880010
:1010E00030918900232B51F090916F009D7F909358
:1010F0006F0090916F009E7F90936F008F98282FC4
:1011000030E0AFEFBFEF0E949B2625E030E040E0EB
:1011100050E00E947926C9012C3764E13607F8F4C3
:1011200069E070E00E9459257093890060938800FF
:10113000FF90EF90DF90CF90089585E02091880098
:1011400030918900232BD9F690916F009260909393
:101150006F0090916F00916090936F00D0CF2A50F4
:10116000374D4F4F5F4F942F832F722F662725EFF8
:1011700038E241E050E00E94792669017A01CA0113
:10118000B9010E942F259B01AC01C701B6010E9445
:101190002F25672F782F892F99276115710521E059
:1011A0008207910509F66FEF7FEFBECFFA0181113B
:1011B00001C0FB0109948091BD02982F9E7F61F4CC
:1011C000817082608093BD028091C002853B18F0DF
:1011D00084EB8093C00208958635B0F381708465F6
:1011E000F1CFAF92BF92DF92EF92FF920F931F93D6
:1011F000CF93DF93182F062FE901453B08F044EB0E
:10120000E42FF0E0E45AFE4F011110C0E4915E2F8C
:101210004E2F4983E8835A83DF91CF911F910F911D
:10122000FF90EF90DF90BF90AF900895202F30E0B7
:101230004491D42EE42EF12C56E0159FC0011124C8
:10124000EFEFF0E0BF010E945925812F90E0880F59
:10125000991F55E5569FD001579FB00D11248A1B49
:101260009B0B982F990F890F5F01A21AB30AAE9CAE
:10127000D001AF9CB00DBE9CB00D11245B2F089F18
:1012800080011124012F11275F01A01AB10AAE9C21
:101290008001AF9C100DBE9C100D11245F01A81A97
:1012A000B108A29EC001A39E900DB29E900D112484
:1012B000892F9927E81BF90BEE9DC001EF9D900D3A
:1012C000FE9D900D1124E92F62307105A1F050F4BC
:1012D0006115710509F49DCF6130710581F0EB2F27
:1012E000512F97CF6430710569F080F06630710539
:1012F00009F48FCFF4CFE42F4B2F592F8ACFE42F4F
:10130000412F87CFEB2F542F492F83CF4B2F5D2DAC
:10131000E12F7FCFF894E82FE295EF70F0E031A154
:10132000282F2F7081E090E001C0880F2A95EAF7FE
:10133000982F9095932391A392A1892B82A37894BF
:1013400008959091AC0292FF06C0282F2871283092
:10135000F9F4877F846093FF06C0282F2871283115
:10136000F1F4877E84612091AD0220FF06C0382F02
:1013700038713830D9F4877F816021FF06C0282F6B
:1013800028712831D1F4877E816194FD877E08958C
:10139000282F24712430F9F68B7F8860DCCF282F2A
:1013A0002471243101F78B7E8861DDCF382F3171B4
:1013B000313019F78E7F8860E0CF282F21712131DD
:1013C00021F78E7E8861E1CFCF93DF9323E0829F68
:1013D000C0011124FC01E70FF11DEE0FFF1FEE0FFE
:1013E000FF1FE60FF11DEE0FFF1FE858FC4FC591E0
:1013F000D491CE01C238D105C9F108F03EC0C13345
:10140000D10509F49AC058F5C932D10509F48EC046
:10141000CA32D10509F498C0C11530E5D30708F0E8
:10142000C1C0C11540E4D40708F02FC1C03ED105AA
:1014300008F09EC0C03CD10508F017C1C83AD105DC
:1014400008F089C0C53AD10508F007C1C130D105FF
:1014500011F1209709F443C02497E8F440C0C53344
:10146000D10509F45CC0C933D105B1F62091AC02B5
:10147000237089F080EE90E00EC0C33ED10591F15B
:1014800068F4C03ED105F9F0C23ED10529F620919D
:10149000AC0222FD20C0DF91CF910895C63ED10558
:1014A00061F1C73ED10581F1C43ED10509F0B4CF49
:1014B0002091AD0221FFEFCF8091AC0284FD0FC0DF
:1014C00087EE90E0E8CF2091AC0220FD24C130915E
:1014D000AD0230FFE0CF83EE90E024FFDCCF90E060
:1014E00080E0D9CF2091AC0222FD18C13091AD022D
:1014F00030FDC0CF24FFCFCFF2CF2091AC0223FF2D
:10150000CACF24FDECCFDCCF2091AC0223FD09C172
:101510003091AD0231FFEECF84EE90E0BCCF209150
:10152000AC0225FFB8CF89E290E0B5CF2091AC02A4
:1015300025FFB1CF85E390E0AECF2091AC0226FF2E
:10154000AACF8AE290E0A7CF2091AC0226FFA3CFDA
:1015500081E390E0A0CFCF3BD10508F6C85AD0E098
:10156000CC0FDD1FC95ADE4F88819981946493CFD7
:10157000C11520E2D20750F4C11531E0D30708F0BD
:101580008ACFC83ED10508F486CFA9CFC11540E364
:10159000D40708F072C0FE01FF70EE0FFF1FE45A7F
:1015A000FE4F68C0C11585E5D80748F5C11524E58B
:1015B000D20708F099C0C11532E5D30750F4C11520
:1015C00041E5D40708F465C09C2F8827816F906A95
:1015D00062CF9C2F96959695AE0143705527C11505
:1015E000D34508F072C021E030E002C0220F331F63
:1015F0004A95E2F740E2949FC001112462C0C115F0
:1016000029E5D207A0F4C11538E5D30708F071C069
:10161000C11546E5D40708F062CF8C2F0E94A109BE
:1016200090E0982F882788279F71906234CFC1154A
:101630008AE5D80708F462C0CE0190568115904221
:1016400008F04DCF8D2F8F710E94A10990E0982F47
:10165000882788279F718C2BE8CFC55AD0E0CC5AB9
:10166000DE4F888190E0906416CFFE01EE0FFF1FE1
:10167000E452F040859194910ECFCE019927D3FF8B
:1016800002C0986C08CF906C06CFCE019F70906A14
:1016900002CF9E01E4E036952795EA95E1F72370A5
:1016A0008C2F86958695837030E2839FC00111242C
:1016B000922BC37021E030E002C0220F331FCA9585
:1016C000E2F7822B932B9C68E6CE21E030E002C04B
:1016D000220F331F4A95E2F740E2949FC001112484
:1016E000822B932B9A68D7CE9C2F8827846F906A81
:1016F000D2CE9C2F8827806F906ACDCE8C2F8F7092
:101700000E94A10934E0D695C7953A95E1F7CF70CC
:101710009C2F9069C0CE89E390E0BDCE82EE90E030
:10172000BACE86EE90E0B7CEBF92CF92DF92EF9224
:10173000FF920F931F93CF93DF938C01C090A80269
:10174000D090A902E090AA02F090AB028091A10291
:101750009091A202A091A302B091A402C82AD92A12
:10176000EA2AFB2ACFE1D0E0BC2ED701C6010C2E1D
:1017700004C0B695A795979587950A94D2F780FDF2
:101780000EC0219788F7B12C8B2DDF91CF911F913F
:101790000F91FF90EF90DF90CF90BF900895B80128
:1017A0008C2F0E94E409019761F3EECFCF93DF9372
:1017B000EC010E94940BBE01DF91CF910C94E409DF
:1017C0000E94D60B292F2F7092959F7092509E30B9
:1017D00078F4E92FF0E0E455F94D0C948125803F31
:1017E00019F020F4883E20F481E00895843FE1F36D
:1017F00080E00895883EC0F3813FD1F7F5CF822F76
:101800008695869586950895CF93DF9300D00F92A5
:10181000CDB7DEB79091D602943019F589837B83DA
:101820006A8382E08093E9008FEF9091E800815015
:1018300095FD06C095ED9A95F1F700008111F5CF61
:101840008091E80085FF0DC050E040E063E070E06B
:10185000CE0101960E9416048091E8008E77809355
:10186000E8000F900F900F90DF91CF910895BC0189
:1018700084E00C94040CBC0183E00C94040CCF9322
:10188000DF93EC0181E08093E9008FEF9091E80015
:10189000815095FD06C095ED9A95F1F700008111F4
:1018A000F5CF8091E80085FF14C050E040E068E08B
:1018B00070E0CE010E9416048091E8008E7780933C
:1018C000E80088E0FE01ACECB2E001900D928A9550
:1018D000E1F7DF91CF91089581E08093E00080E20D
:1018E0008093D8001092C9008FE19EE40197F1F730
:1018F00000C0000087E090EBDC018093D40390935C
:10190000D503A093D603B093D70388E19CE00FB62C
:10191000F894A895809360000FBE90936000FFCF6D
:10192000CF93C82F882309F488C08238C1F40E945D
:10193000040881FD82C089E30E94CF060E949506BB
:101940002FEF81EE94E0215080409040E1F700C0FD
:10195000000089E30E94C206CF910C94950683385B
:10196000A1F40E94040880FD68C083E50E94CF06B0
:101970000E9495062FEF81EE94E021508040904028
:10198000E1F700C0000083E5E5CF8438A1F40E94B0
:10199000040882FD52C087E40E94CF060E9495068B
:1019A0002FEF81EE94E0215080409040E1F700C09D
:1019B000000087E4CFCF8CEF8C0F813A68F4E0EA27
:1019C000F1E08191C81799F121E0E63AF207C9F7F1
:1019D0008C2F0E94CF06C0CF80E28C0F883068F435
:1019E000C77021E030E001C0220FCA95EAF780916C
:1019F0009F02822B80939F02AFCFEBE5EC0FE33089
:101A000040F4F0E0EC5AFE4F808190E0CF910C94CE
:101A10007007C85AC73188F4EC2FF0E0EE0FFF1FB3
:101A2000E95AFE4F80819181CF910C945A078C2FF7
:101A30000E94C2060E949506CBCFCF9108951F93B6
:101A4000CF93DF93182FD0E0C0E0893311F4C0E5C5
:101A5000D0E0812F0E94900C209731F4812FDF91EC
:101A6000CF911F910C9410088FE99FE00197F1F737
:101A700000C000002197F0CF0F931F93CF93DF9307
:101A8000C62FD42F022FFC0182818823A1F06093FE
:101A9000D3030E9483069093D2038093D103C7702F
:101AA00081E001C0880FCA95EAF7DF91CF911F91BD
:101AB0000F910C9450078091D303681340C020917C
:101AC000D1033091D2034FB7F8948091CD03909118
:101AD000CE03A091CF03B091D0034FBF821B930BD5
:101AE000883C910560F510E21D0F6D17B9F080E29A
:101AF000860F883040F4C77081E001C0880FCA9516
:101B0000EAF70E944507183048F481E09D2F97704E
:101B100001C0880F9A95EAF70E945007802F0E9413
:101B20001F0D183098F4D77081E001C0880FDA9546
:101B3000EAF7DF91CF911F910F910C944507C77081
:101B400081E001C0880FCA95EAF7F3CFDF91CF910A
:101B50001F910F9108958091BD0280FD0AC0ECEAAB
:101B6000F1E0118210821282339651E0EB3EF507CC
:101B7000C1F7879A31B33F7721B320684FB7F89404
:101B80008CEA91E0FC015191CF0168E021BB00009B
:101B900000C057FF31BB550F000000C000C000C09F
:101BA00031BB00C06A9591F7F1E08B3E9F0751F77A
:101BB0004FBF8FE594E00197F1F700C00000089552
:101BC0004F925F926F927F928F929F92AF92BF924D
:101BD000CF92DF92EF92FF920F931F93CF93DF93F9
:101BE000FC016280448081E08483E1E6F2E074904D
:101BF000E0EEF2E0E491CBEED1E03CEAE32E31E01E
:101C0000F32E44E5C42E42E0D42E52E0A52EBB2490
:101C1000B39488248A94912C55245A94E7190E2F52
:101C200010E082E0861530F08091BE0288838091BA
:101C3000BF028983411021C01B821A8297014A8109
:101C4000698188810E94F108259683E0E80EF11CE5
:101C5000CC16DD0631F7DF91CF911F910F91FF90E8
:101C6000EF90DF90CF90BF90AF909F908F907F903C
:101C70006F905F904F900C94AB0D8B818823E9F0AF
:101C800081508B83859DC00111246C8170E00E947E
:101C90005925FB01FF27EF59FD4F8491E82FE719E4
:101CA000E59DC0011124B8010E9459258091C00210
:101CB000689FB00111247A83C1CF0E94E225209150
:101CC000C002269521582A9DA0012B9D500D11245C
:101CD000452F5527841795070CF0B0CF82E0861565
:101CE00088F40E94E225B4010E946D2588830E9439
:101CF000E2252091BF022695622F70E00E946D259B
:101D0000280F29831A828091C002893C20F088EC38
:101D10008C838B8393CF8431D8F784E1F9CFEF9212
:101D2000FF921F93CF93DF93EC018CEAE82E81E0C2
:101D3000F82E10E08C8197014091C0026091BF02A3
:101D4000810F0E94F108145F83E0E80EF11C1C3F34
:101D500089F70E94AB0D9A818C8190FF08C08F5F3C
:101D60008C83DF91CF911F91FF90EF900895815068
:101D7000F7CFBF92CF92DF92EF92FF920F931F9314
:101D8000CF93DF93FC018281DD24DA9480FD02C0D1
:101D9000DD24D3940CEA11E0D0E0C0E025E1B22EBE
:101DA000F80111821082128294E0E92EF12CC12CEC
:101DB0008091A9018C0D86310CF43DC06B2D0E94E1
:101DC0004B25892F082E000C990B8C179D0791F439
:101DD0008091C0028E9DA0018F9D500D11245595BC
:101DE00047955595479598016091BF028091BE0235
:101DF0000E94F108CD0CF1E0EF1AF108C9F6219626
:101E00000D5F1F4FC531D10559F60E94AB0D809172
:101E1000A90191E0D91215C0811111C084E180930C
:101E2000A901DF91CF911F910F91FF90EF90DF906B
:101E3000CF90BF90089587FFC5CF8B5EC3CF8150F1
:101E4000EECF90E00196BE010E946D25E8CF0F9382
:101E50001F93CF93DF93CCEAD1E0FE011182108271
:101E60001282339681E0EB3EF807C1F710E000E004
:101E70008091AA01082E000C990B081719078CF104
:101E800080911001082E000C990B801791074CF1DE
:101E90009E014091C0026091BF028091BE020E94EB
:101EA000F1080F5F1F4F23960531110509F70E94B6
:101EB000AB0D80910F019091AA01980F9093AA0108
:101EC00020911001280F20931001121614F4943160
:101ED0001CF0819580930F01DF91CF911F910F919D
:101EE0000895198218821A82DCCF8F929F92AF9246
:101EF000BF92CF92DF92EF92FF920F931F93CF93F7
:101F0000DF93EC014C81042F10E09801D8010E946E
:101F10009B269B01AC010E9466264B015C01E0E21E
:101F2000F0E0E01BF10BA5E5B0E0AC019B010E94E5
:101F300066266B017C019F01DF010E9487259B01C2
:101F4000AC010E9471269B01AC01280D391D4A1D70
:101F50005B1DC701B6010E947926F22E822F90E008
:101F600039E23F15D8F143E0249F900111243595C3
:101F70002795122F10959CEAC92E91E0D92E00E0EA
:101F800085E5E82EEF188E2D01FD8F2D9601412F4E
:101F90006091BF020E94F1080F5F53E0C50ED11C93
:101FA000053189F70E94AB0D9C8181E0992319F0DE
:101FB000903219F48FEF8093110180911101890FF4
:101FC0008C83DF91CF911F910F91FF90EF90DF9065
:101FD000CF90BF90AF909F908F90089525E530E00F
:101FE000A901481B590BCA019A01220F331F280F60
:101FF000391F37FFBCCF2F5F3F4FB9CFEF92FF9212
:102000000F931F93CF93DF938C01CCEAD1E0F12C97
:10201000E12CF80194816091BF028091BE02FAE048
:10202000EF16F104FCF49923F9F09E014091C002EF
:102030000E94F1082FEFE21AF20A239685E1E816D2
:10204000F10439F70E94AB0DF801848190E001960C
:10205000817099278483DF91CF911F910F91FF9019
:10206000EF900895992309F39E0140E0E1CF90910C
:10207000BD0290FF0CC0ECEAF1E0818360834283F3
:10208000339691E0EB3EF907C1F70C94AB0D089540
:102090000F931F93CF93DF9300D00F92CDB7DEB78E
:1020A0008C018091AB0181110AC09E012F5F3F4FCF
:1020B00044EB6FEF0E94F1088A818093AB01F80135
:1020C0006481613069F08091AB0140E0662361F08A
:1020D00040E0623011F44091AB0180E060E004C068
:1020E0006091AB0140E080E00E943710F8018481EC
:1020F00090E0019663E070E00E946D2584830F906C
:102100000F900F90DF91CF911F910F910895CF9372
:10211000DF9300D00F92CDB7DEB79091BD0290FF54
:102120000AC09E012F5F3F4F0E94F1084B816981D9
:102130008A810E9437100F900F900F90DF91CF91FE
:102140000895CF93DF93EC01EC81F0E0EF59FD4F60
:102150004491EDEBF2E0628181810E9487108C81D5
:102160008F5F8C83DF91CF910895CF93DF93EC0144
:10217000EDEBF2E0438162818C810E9487108C81BB
:102180008F5F8C83DF91CF910895BF92CF92DF92C2
:10219000EF92FF920F931F93CF93DF9384E9E82E82
:1021A00081E0F82EC5EAD2E0C12CD12C01E010E08C
:1021B000F70181917F01F894E82FE295EF70F0E04C
:1021C00021A18F70A80102C0440F551F8A95E2F724
:1021D000CA01922F982B91A392A18095892382A363
:1021E000789400C0E7E9F1E030E020E0B12C4191C3
:1021F000A42FA295AF70B0E090968C9190E04F70B4
:1022000002C0959587954A95E2F780FD4FC0802FD3
:10221000022E01C0880F0A94EAF7B82A2F5F3F4FB9
:102220002430310521F7F701319780810E948A0916
:1022300052E0C51619F080EA8A95F1F78881B81640
:10224000B9F1B88281E0D82AC3942196E3E0CE1296
:10225000AFCFDD2079F181E08093A8010E94830651
:102260009093A7018093A6012091A6013091A70128
:102270004FB7F8948091CD039091CE03A091CF03F6
:10228000B091D0034FBF821B930B0697B8F080919B
:10229000A5028093B4028091A6028093B50280913A
:1022A000A7028093B6021092A80108C080E0B5CFC3
:1022B00080E0C9CF8091A8018111D6CF8D2DDF910B
:1022C000CF911F910F91FF90EF90DF90CF90BF9033
:1022D0000895AF92BF92CF92DF92EF92FF920F9349
:1022E0001F93CF93DF93EC018AE0A82EFE01249187
:1022F000222309F494C0213009F03EC03196849124
:10230000813031F42296FE0184910E941F0D07C096
:10231000823039F42296FE0184910E94900C21961D
:10232000E5CF833031F42296FE0184910E9410089B
:10233000F6CF843009F071C02296FE01249190E01E
:1023400080E0FE0131962053330B2A30310548F0EE
:10235000019728F3EFE9FFE03197F1F700C00000A3
:10236000F7CFA89EA001A99E500D1124C901840F8A
:10237000951F2491EF01E5CFE22FF0E0E452FF4FEB
:10238000B490822F86958695869590E0FC01E45363
:10239000FF4FE4902770F12C022E02C0F594E794D1
:1023A0000A94E2F731E0E322FF24FC01E454FF4FFA
:1023B000C490D12C022E02C0D594C7940A94E2F79F
:1023C000E1E0CE22DD24FC01E455FF4F049110E052
:1023D00002C0159507952A95E2F701701127E114BF
:1023E000F10419F081EE0E94900CC114D10419F08F
:1023F00086EE0E94900C8B2D0E941F0DCD2819F0A7
:1024000086EE0E941008EF2819F081EE0E94100855
:10241000012B09F484CF8CE278CFEF0180CFDF91DC
:10242000CF911F910F91FF90EF90DF90CF90BF90D1
:10243000AF900895CF9384E090E00E94FF25C82FCD
:1024400081E290E00E94FF25982F8C2FCF91089574
:1024500090E080E00E940D2621E08B3E9E4F09F027
:1024600020E0822F0895CF92DF92EF92FF926B01CE
:102470007C010E94DB08B701A60188E090E0FF9094
:10248000EF90DF90CF900C9425265F926F927F9211
:102490008F929F92AF92BF92CF92DF92EF92FF9274
:1024A0000F931F93CF93DF9300D00F92CDB7DEB77A
:1024B000182F762E042F622E9091BD0290FF29C016
:1024C000E92FE695AE2FB0E0A75DBE4F8C918093CB
:1024D000C2029E7F923081F59E012F5F3F4F812F78
:1024E0000E94F1084B8169818A810E943710109304
:1024F000BE027092BF020093C002662051F060914C
:10250000BD027091BE028091BF029091C0020E94F4
:1025100033120F900F900F90DF91CF911F910F9179
:10252000FF90EF90DF90CF90BF90AF909F908F90F3
:102530007F906F905F900895823019F40091C002EF
:10254000D6CF863019F41091BE02D1CF8930D9F39D
:10255000893169F6E9518E2F8170582EE695F0E0A9
:10256000E45AFD4FA590B490BB248CEAE82E81E09C
:10257000F82ED12CC12C95E1892E912CC601B401E5
:102580000E945925812F511013C0860F9701402FAB
:10259000672D0E94F108CA0CDB1C83E0E80EF11CD9
:1025A0008BEEE81681E0F80649F70E94AB0D9FCF4D
:1025B000861BECCFEDEBF2E0438128E0421B08F4F0
:1025C00040E021E0628181810C944512EDEBF2E064
:1025D000438128E0420F08F44FEF21E062818181BE
:1025E0000C944512EDEBF2E0628128E0621B08F4E6
:1025F00060E021E0438181810C944512EDEBF2E033
:10260000628128E0620F08F46FEF21E0438181814D
:102610000C944512EDEBF2E0818121E0438162816F
:1026200082500C944512EDEBF2E0818121E0438170
:1026300062818E5F0C9445128091C102882319F04B
:1026400081508093C1026091BD027091BE02809161
:10265000BF029091C0020C9433128091C10283306A
:1026600018F48F5F8093C1026091BD027091BE0229
:102670008091BF029091C0020C943312EDEBF2E016
:1026800083E0808311828FEF828384EB83831482C3
:1026900060817181828193810C94331210929F0228
:1026A000E0EAF1E086E0DF011D928A95E9F70C94FB
:1026B00086071F93CF93DF93CDB7DEB7AA970FB6E8
:1026C000F894DEBF0FBECDBF88ED92E02091F100FF
:1026D000FC012193CF01F2E0803E9F07B9F7809182
:1026E000D902833009F46FC0B8F4813009F446C0D0
:1026F000823009F4B0C08091E80083FF85C28091E8
:10270000D8029091D9029A3008F07EC2E92FF0E009
:10271000E654F94D0C9481258A3009F48BC08B3036
:1027200009F46EC0893039F78091D802813219F7E7
:102730008091DC029091DD020297E8F68091E8003A
:10274000877F8093E8008091E80082FF37C09091F6
:10275000F3008091F200029729F48091F1008B7FC1
:10276000813021F48091F1008093CB028091E800C8
:102770008B778093E8000E944004BDCF8091D802FF
:10278000813A09F0B8CF8091E800877F8093E80014
:102790008091DC029091DD02892B61F468E08CEC81
:1027A00092E070E00E94F2048091E8008B778093C1
:1027B000E800A1CF60E090E080E0F3CF8091D60206
:1027C0008111C1CF98CF8091D802813A09F093CF7F
:1027D0008091DC029091DD02892B09F08CCF8091F1
:1027E000E800877F8093E8008091E80080FFFCCFBD
:1027F000809128018093F1008091E8008E77B9CF15
:102800008091D802813209F076CF8091DC029091DC
:10281000DD02892B09F06FCF8091E800877F8093DC
:10282000E8000E9440048091DA02809328010E940F
:102830004E1361CF8091D802813209F05CCF809134
:10284000E800877F8093E8000E9440048091DB02CB
:102850008093CA0250CF8091D802813A09F04BCFC1
:102860008091E800877F8093E8008091E80080FFF6
:10287000FCCF8091CA02BECF803899F0823809F02F
:10288000C3C18091DC028F70873008F0BDC1809396
:10289000E9008091EB0085FB882780F91092E90020
:1028A00006C08091D4029091D502911182609091DE
:1028B000E800977F9093E8008093F1001092F10078
:1028C0008091E8008E779CC1882309F48AC1823008
:1028D00009F09AC18091DA0281118DC18091DC02E8
:1028E0008F702FEF280F263008F08EC18093E900FB
:1028F0002091EB0020FF7FC1933031F48091EB00F9
:1029000080628093EB0077C19091EB00906190938F
:10291000EB0021E030E001C0220F8A95EAF7209316
:10292000EA001092EA008091EB008860EACF811102
:102930006BC11091DA021F778091E3008078812BC0
:102940008093E3008091E800877F8093E8000E94F5
:1029500040048091E80080FFFCCF8091E300806814
:102960008093E30082E0111183E08093D6024CC192
:102970008058823008F048C18091DA029091DB02E1
:102980008C3D23E09207A1F583E08A838AE2898364
:102990004FB7F894DE01139620E03EE051E2E32FBA
:1029A000F0E050935700E49120FF03C0E295EF70F0
:1029B0003F5FEF708E2F90E0EA30C0F0C7968D93A6
:1029C0009D932F5F243159F74FBF8091E800877F97
:1029D0008093E8006AE270E0CE0101960E94F20462
:1029E0008091E8008B778093E8000EC1C096E7CF16
:1029F0004091DC025091DD02292F3327233031052D
:102A000009F444C078F52130310509F46FC08FE92D
:102A100090E0EFE2F4E02230310509F0F5C02091BA
:102A2000E800277F2093E8002091DE023091DF024A
:102A30008217930708F49C0140E02115310509F045
:102A400064C0411162C08091E80082FDC9CF8091CD
:102A5000D602882329F2853019F28091E80083FF9D
:102A6000F2CFBECF21323105A9F12232310509F072
:102A7000CBC04115510509F443C04130510509F05F
:102A8000C3C082E390E0EDEBF3E0C9CF992781303A
:102A90009105C1F0009759F0029709F0B5C0E0EE3A
:102AA000F4E0E4918E2F90E0E0EEF4E007C0E2E184
:102AB000F5E0E4918E2F90E0E2E1F5E0009709F473
:102AC000A3C0ADCFE6EFF4E0E4918E2F90E0E6EF07
:102AD000F4E0F4CF4115510571F04130510509F092
:102AE00093C089E090E0EAE5F4E099CF82E190E0DC
:102AF000EEECF4E094CF89E090E0E1E4F4E08FCFF5
:102B000080E490E0EFEEF3E08ACF8091D602882354
:102B100009F466CF853009F463CF8091E80083FD26
:102B20005FCF8091E80082FD8ECF8091E80080FF2A
:102B300084CF9091F3008091F2002115310519F0B6
:102B40008830910550F041E0089709F040E080910D
:102B5000E8008E778093E80070CF44914093F100B5
:102B60003196215031090196E8CF803809F04CC0E8
:102B70008091E800877F8093E8008091D70280935E
:102B8000F1009ECE811140C01091DA021230E0F5C2
:102B90008091E800877F8093E8001093D7020E941D
:102BA0004004112311F084E005C08091E30087FD0B
:102BB000FACF81E08093D60242E061EC81E00E948E
:102BC0005F0442E261EC82E00E945F0442E361E85C
:102BD00083E00E945F0442E361E884E00E945F04B6
:102BE00013C08091DA02813079F481E0933009F0EA
:102BF00080E08093D5021092E9008091E800877F01
:102C00008093E8000E9440048091E80083FF0AC09E
:102C10008091E800877F8093E8008091EB008062DC
:102C20008093EB00AA960FB6F894DEBF0FBECDBF1F
:102C3000DF91CF911F9108956091BD02669570E07C
:102C40004BE050E084E091E00E94F225892B19F4DA
:102C500081E08093C3020E9483069093B802809320
:102C6000B70208959091BD0290FF36C09170811116
:102C700029C092609093BD02662351F06091BD021D
:102C80007091BE028091BF029091C0020E943312E7
:102C90006091BD02669570E04BE050E084E091E009
:102CA0000E94F225892BA9F01092C30281E0809343
:102CB000BA0220E04091C0026091BF028091BE0242
:102CC0000C9445128B3210F09465D4CF880F982B5A
:102CD000D1CF0E941C16EACF089561E00C94321601
:102CE0006BEE7EEF90E080E00E94312660E082E0B3
:102CF00090E00E94132660E083E090E00E9413269B
:102D00001092A1021092A2021092A3021092A402A9
:102D100060E084E090E00E94132660E081E290E0B1
:102D20000E94132660E085E090E00E94132660E098
:102D300086E090E00E9413266FEF87E090E00E940B
:102D4000132640E050E0BA0188E090E00E9425267A
:102D500060E08DE090E00E94132640E050E0BA0170
:102D600088E190E00E94252660E087E190E00E94E3
:102D7000132640E050E0BA018CE190E00E94252645
:102D800060E080E290E00E94132640E050E0BA014B
:102D900088E190E00E942526EDEBF2E080818160E1
:102DA000808386950E946D1621E044E66AEF80E0FC
:102DB0000E94451289E00E946D1640E050E0BA0181
:102DC0008FE090E00E94252640E050E0BA0183E1C8
:102DD00090E00C9425260E942812811102C00E94C6
:102DE000701686E090E00E94FF25809358028033A1
:102DF00020F0877088628093580290915802892F42
:102E0000817090FF04C0892F8695869586950C94D5
:102E100066088091BD028695815009F48AE261E0DE
:102E20000C9432168091BD0286958F5F8B3208F02C
:102E300081E061E00C9432169091BD0290FF07C0D2
:102E40009695981720F0961710F40C9412170C947E
:102E50006D164F925F926F927F928F929F92AF9278
:102E6000BF92CF92DF92EF92FF920F931F93CF9377
:102E7000DF9300D000D00F92CDB7DEB77C01FC010C
:102E800083819481892B39F010810181812F8023E6
:102E90008F3F09F058C50F900F900F900F900F9033
:102EA000DF91CF911F910F91FF90EF90DF90CF9026
:102EB000BF90AF909F908F907F906F905F904F905A
:102EC00008950E94940BD82E682F89819A810E94C0
:102ED0000F07E02FF0E023E0D29EE00DF11D11245A
:102EE000EE0FFF1FEE0FFF1FE10FF11DEE0FFF1F93
:102EF000E858FC4F05911491F70182810932FDE5F4
:102F00001F07B1F10A322DE51207C9F1F7019281CD
:102F1000992309F48AC50E3BFCE51F0709F497C005
:102F200098F50C3B3CE5130709F44EC00D3B8CE5CE
:102F3000180709F484C0043F2CE5120709F4DAC02D
:102F400008F01EC5093D8CE5180709F4CFC00A3DFD
:102F5000ECE51E0709F4DAC0083DFCE51F0709F09F
:102F60001BC526E241EE61EEC7010E943C0D45C043
:102F7000882361F28BE693E00E946911C7CF882312
:102F800029F281E693E0F8CF003CECE51E0709F456
:102F900090C008F47AC0013C2CE5120761F69091CC
:102FA0005802892F8695869586958F5F8F719770C9
:102FB000863008F098C0880F880F880F892B80937F
:102FC0005802809158024BC08091580287708862E5
:102FD00080935802887F91E009F490E08091580234
:102FE00090FB80F98093580285E00E94660860910A
:102FF000580286E090E00E94132680919C02877020
:1030000009F449CFF7018281882309F444CF82E093
:103010000F900F900F900F900F90DF91CF911F9115
:103020000F91FF90EF90DF90CF90BF90AF909F9067
:103030008F907F906F905F904F900C94C10780911C
:10304000580287708E7F8093580280E0CECF8091A7
:103050005802982F987F89F0885080935802887F73
:1030600091E009F490E06091580290FB60F9609360
:10307000580286E090E00E941326809158028695BF
:10308000869586950E946608B8CF80915802982F41
:10309000969596959695953040F49F5F990F990F68
:1030A000990F8770892B8093580260915802616054
:1030B000DECF6091580260FF09C06E7F60935802B6
:1030C00086E090E00E94132680E0DCCF60FD95CF83
:1030D000616060935802613019F489E0809358026E
:1030E00060915802C6CF909358026BCF27E245EE0D
:1030F00065EE3ACF26E241EE60EE36CF27E245EEAE
:1031000064EE32CF26E241EE62EE2ECF28E241E0BD
:10311000EFCF8091AC0280610630FCE51F0709F417
:103120008BC08091AC02886007301C4508F484C0D5
:103130008091AC02806280C08091AC028D7F0C30A7
:103140003CE5130709F478C070F48091AC028C6000
:103150000A309CE5190709F46FC008F47CC080911F
:10316000AC028E7F69C08091AC02877F0E30FCE597
:103170001F0709F461C08091AC028B7F0F301C45A2
:1031800008F45AC08091AC028F7E56C00C3F3CE5DB
:10319000130709F458C030F503319CE5190709F409
:1031A00068C078F40131FCE51F0709F45EC0023104
:1031B0001C4509F02AC40E944E138091AC028F77FF
:1031C0003BC005313CE5130709F45BC008F46FC050
:1031D0008091AD0281600B3F1C4509F016C48093BD
:1031E000AD0213C40115EDE51E0709F446C088F4CD
:1031F0008091AD028D7F0E3F2CE5120781F3809107
:10320000AD028E7F0F3F1C4550F38091AD0283606D
:10321000E6CF02308DE5180709F452C0F0F160E006
:1032200003301D4509F0F1C38EE090E00E941326A3
:10323000ECC38091AC0281608093AC02E6C38091C4
:10324000AC028460F9CF8091AD028260C8CF8091DA
:10325000AC028064F1CF0E944E138091AC02806872
:10326000EBCF8091AC028F7DE7CF8091AC028F7B5A
:10327000E3CF8091AC02837FDFCF8091AD028C7F62
:10328000AECF8091AC0282FB992790F921E0922782
:1032900090FB82F990FB83F9CFCF8091AD02982FFC
:1032A000909591708E7F892B90FB81F998CF0E9429
:1032B0004E139091AC02892F97FB87F98058BCCFB1
:1032C00061E0B2CF80919F020631FCE51F0709F053
:1032D0004BC38A7A91E009F490E0909359028111EE
:1032E00006C089E20E94CF060E94950686CE85E33D
:1032F000F9CF85E3B8C38091BD0280FF1BC08E7FEC
:103300008093BD026091BD027091BE028091BF02A8
:103310009091C0020E9433121092C3022FEF30E747
:1033200082E0215030408040E1F700C000000E9460
:10333000AB0D63CE81608093BD0286950E946D16B1
:103340005CCE49E057E162E177E10E94D60855CEB4
:1033500042E157E169E077E1F8CF4AE053E163E108
:1033600073E1F3CF43E153E16AE073E1EECF42EF63
:1033700052E16EEF72E1E9CF4EEF52E162EF72E19E
:10338000E4CF4AED52E166EE72E1DFCF46EE52E164
:103390006AED72E1DACF4CE153E16DE273E1D5CF32
:1033A0004DE253E16CE173E1D0CF81E0C7CF65E03E
:1033B00082E00E941C1721CE68E086E0FACF6EE022
:1033C00089E0F7CF64E18FE0F4CF67E185E1F1CFE9
:1033D00088E1B4CF62E289E1ECCF83E2AFCF01159F
:1033E000ECE51E0709F445C00F3D1C4509F44EC02D
:1033F000F70100811181992309F44BC0C8010E9493
:10340000940BD82E682FC8010E940F07B8018D2D8C
:103410000E94E4098C01882EF701D280A580A29435
:103420007FE0A72280919C028770A1F0CD2CDD2047
:1034300091F0812F807F803421F080E2800F8830EE
:1034400048F082E00E94C10780919C028770CC24E2
:10345000C3948111C12CB12EB2946FE0B622FBE06F
:10346000FB1508F450C0EB2DF0E0EC53F94D0C9433
:1034700081250E944E132FEF34E38CE02150304021
:103480008040E1F700C000000E946C0C0E947016A2
:10349000B4CDC8010E94E806D82EB8CF212F2F70D6
:1034A000A22E107F19F0A29450EFA522DD20C9F0C2
:1034B000AA2069F080E2800F883010F081100BC0E4
:1034C00080919F02A82AA0929F020E949506802FB9
:1034D0000E94900C18C080919E02A82AA0929E0281
:1034E000F4CF802F0E941008AA2069F0A094005EFB
:1034F000083010F0811048C080919F02A822A0924D
:103500009F020E949506EB2DE850FF0B349710F4B4
:103510000E940408CC20A9F080919C0280FD11C07B
:10352000F70112828595859585950E94D907C70177
:103530000E94291780919C028595859585950E940A
:103540009E0785E0F701DE01119601900D928A95A4
:10355000E1F789819A810E94E806EA81F0E023E0A0
:10356000829FE00DF11D1124CF01880F991F880F54
:10357000991FE981E80FF92FF11DEE0FFF1FE858A1
:10358000FC4F8591949187CC80919E02A822A092B5
:103590009E02B7CF312F3F70932E107F103219F05B
:1035A000929440EF9422882071F081E0881661F1B6
:1035B000DD20B9F1AA2071F1F701858180FF87CF65
:1035C0008F70858327C0DD2091F09091A002892D16
:1035D000892BA11003C00E94500795CFE1E0AE12E5
:1035E000FACF891709F48FCF8093A0028CCFA11056
:1035F00006C00E948F06892D0E94450784CFF1E006
:10360000AF1609F480CFF5CFDD2031F025E02A1583
:1036100008F479CF892DDFCF34E03A1508F473CF61
:10362000EACFAA2041F3F9E38F1286C12FEF37EEDC
:1036300083E0215030408040E1F700C000007CC1B1
:10364000812F86958695837061F0813009F05BCF7C
:10365000C8019370D11002C090E080E00E945A0728
:1036600052CFC8019370D11002C090E080E00E9458
:10367000700749CF812F837009F066C0D11043CF06
:10368000802F829586958770880F880F602F6F70C6
:10369000462E512C712C612C082E04C0440C551C54
:1036A000661C771C0A94D2F740E050E0BA0104FF90
:1036B0000FC04FE050E060E070E004C0440F551FC1
:1036C000661F771F8A95D2F7409550956095709543
:1036D000812F869586958370823019F1D8F40091F8
:1036E000A1021091A2022091A3023091A402813084
:1036F00069F04429552966297729CB01BA0160234D
:103700007123822393230E94FA07FDCE402A512A77
:10371000622A732ACB01BA0164297529862997295F
:10372000F2CF44295529662977290091A1021091E9
:10373000A2022091A3023091A402CB01BA0160271A
:10374000712782279327DFCF8695DD2011F0812F07
:103750008170882309F4D7CE802F82958695877053
:10376000880F880F602F6F70462E512C712C612CA2
:10377000082E04C0440C551C661C771C0A94D2F712
:1037800040E050E0BA0104FF0FC04FE050E060E0BD
:1037900070E004C0440F551F661F771F8A95D2F74B
:1037A0004095509560957095812F8695869583708C
:1037B000823019F1D8F40091A8021091A902209149
:1037C000AA023091AB02813069F04429552966295B
:1037D0007729CB01BA0160237123822393230E94AE
:1037E000940791CE402A512A622A732ACB01BA014A
:1037F0006429752986299729F2CF442955296629F4
:1038000077290091A8021091A9022091AA02309173
:10381000AB02CB01BA016027712782279327DFCF44
:103820001F70DD2029F0812F0E94D907802FD3CE71
:10383000802F0E944507812F0E949E0764CE802F13
:1038400092EF891609F450C0981578F0E0EF8E16C3
:1038500019F1F1EF8F1609F43FC0DD2009F467C0BC
:10386000A11035CE812F8F713CC023EF821609F451
:1038700040C034EF8312F1CFDD2009F44DC01F7139
:10388000812F0E94D907E8E01E9FC00111248360A8
:1038900080939C02812F25C0DD20C9F084E08A1529
:1038A00008F431CE1F7161E070E080E090E004C068
:1038B000660F771F881F991F1A95D2F70091A802EB
:1038C0001091A9022091AA023091AB02A4CF95E0F9
:1038D0009A1508F418CEE6CF812F8F71DD2009F4F8
:1038E000ABCF0E94D9070FCE812F8F71DD20C9F396
:1038F000A3CF60E070E0CB01DD2009F470CF1F7131
:1039000061E070E080E090E004C0660F771F881FE0
:10391000991F1A95D2F763CF81E00E94C107F1E0A9
:10392000FA1508F0F0CD82E00E94C107ECCDAA2084
:1039300039F0893309F47ACE802F0E941008E3CD44
:10394000812F8F7179CF85E0DE01119601900D9264
:103950008A95E1F7F701228189819A812111B1CA03
:103960000E94E806D82EB5CA8272F801E35CFC45D5
:10397000E431F10508F033CDE053F94D0C94812585
:10398000063F2CE5120709F4BDCB08F4B7CB073F7F
:103990008CE5180709F475C01092D30302303CE59A
:1039A000130708F48FCC06318CE5180738F098011E
:1039B0002B5F3C452930310508F084CC0E941A1257
:1039C0009093AD028093AC0200319CE5190709F495
:1039D00048CC08F0DBCB0830FCE51F0709F437CCF6
:1039E00008F0AACB04303CE5130709F428CC08F012
:1039F00090CB02309CE5190709F41BCC8091AC02F6
:103A0000826003301C4509F417CC6091AC02109120
:103A1000AD0284E090E00E941326612F81E290E0E5
:103A20000E9413260E944E13E8CA043FECE51E07CD
:103A300009F460CBD8F4093D2CE5120709F456CB04
:103A40000A3D3CE5130709F461CB083D8CE51807F6
:103A500009F487CA06311C4509F0CACC8091590285
:103A6000811147CC89E20E94C2063ECC063FECE5BC
:103A70001E0709F447CB08F441CB073F2CE512079A
:103A800049F727E245EE66EE6FCA1F93CF93DF93A7
:103A900080915F02807FA9F480915C02882389F085
:103AA00080919102D091600260915A0270915B0204
:103AB000A0915D02B0915E02C62FC72316E0D81315
:103AC00004C0DF91CF911F91089590E0109711F0FD
:103AD000CF3F19F401968770F2CF189F9001199F7C
:103AE000300D1124F901EF59FD4F41814713F2CFF9
:103AF00040814613EFCF42814111ECCF4381548185
:103B00004A1B5B0B483C510528F780915F028F7080
:103B1000806180935F02F901EA59FD4F80818F70C7
:103B2000806180838AE592E00E942917DF91CF911E
:103B30001F910C943B07AF92BF92CF92DF92EF920E
:103B4000FF920F931F93CF93DF93CDB7DEB76197AB
:103B50000FB6F894DEBF0FBECDBF8C0185E0F80133
:103B6000DE011D9601900D928A95E1F7F8018081A2
:103B70009181E2802AE5A22E22E0B22E60915D02C0
:103B800070915E026115710509F43EC130915A02CF
:103B900040915B02232F24232F3F09F435C1C380BA
:103BA000D480F0905C02F601E61BF70BFF2009F4CD
:103BB000FBC020915F02522F507FE83CF10508F0D6
:103BC000BBC0511178C0FE2C491321C038131FC04F
:103BD000E1101DC02F70206120935F02C5010E947B
:103BE000291780915F02F80185838F2D61960FB6AA
:103BF000F894DEBF0FBECDBFDF91CF911F910F9123
:103C0000FF90EF90DF90CF90BF90AF900895CD28B8
:103C100029F0282F29232F3F09F014C120E0F22F8B
:103C2000F170DF2E20FF3DC0209191024091600293
:103C300056E0241315C08D879E878D859E850E9432
:103C4000D60B292F22952F702230F8F0243020F542
:103C50009F70F9F0F8019581907FD9F4D12C1FC0A5
:103C600030E0529FF001539FF00D1124EF59FD4FAA
:103C70006181961306C06081861303C06281E612DB
:103C800010C02F5F3F4F2770D4CF9F7011F0882353
:103C900029F3805E883010F3C8010E942917FD2C9B
:103CA000A4CFEE2009F4A1CF80915F0281608093C0
:103CB0005F02F12C9ACF491312C0381310C0E110E3
:103CC0000EC0F8012583C8010E94291786E0F8017B
:103CD000AAE5B2E001900D928A95E1F786CF8D8733
:103CE0009E878D859E850E94E00B882309F1EE203A
:103CF000F9F080915F02803270F020915A02309189
:103D00005B0238872F831986DB86CA868C87CE01B3
:103D100007960E94291786E0F801AAE5B2E0019013
:103D20000D928A95E1F70E94451DFF24F3945DCF23
:103D3000C8010E942917F9CF51110AC08AE592E003
:103D40000E94291786E0F50111928A95E9F7B1CF13
:103D500049130FC038130DC0E1100BC0F8012583C3
:103D6000C8010E94291786E0F50111928A95E9F7AA
:103D70003CCF8D879E878D859E850E94E00B882392
:103D8000B9F2EE20A9F280915F02803220F22091F8
:103D90005A0230915B023A8329831B82DD82CC82F6
:103DA0008E83CE010196B5CFE83CF105E0F6FE2CFE
:103DB000EE2009F4BDCF491316C0381314C080910A
:103DC0005F0280FD83CF982F907F09F47FCFF801A9
:103DD0008583903F09F477CF982F907F905F8F7005
:103DE000892B858370CF8D879E878D859E850E94C8
:103DF000E00B811190CF80915F02816080935F0220
:103E0000C8010E942917F1CEEE2009F491CF8D87C9
:103E10009E878D859E850E94E00BF82E882309F4ED
:103E200087CF86E0F801AAE5B2E001900D928A956D
:103E3000E1F780915A0290915B020E94D60B0E949A
:103E4000451DD3CE21E02E25EACE1F93CF93DF93DD
:103E5000CDB7DEB767970FB6F894DEBF0FBECDBF04
:103E6000342F4B8B252F5C8B6D8B7E8B8F8B8E89AC
:103E70009F89611110929E021A8A198A3D872E87A6
:103E80006F87998B888B86E0FE013D96DE01179641
:103E900001900D928A95E1F7CE0107960E949B1D35
:103EA000882389F016E08091910290916002891335
:103EB00049C067960FB6F894DEBF0FBECDBFDF9145
:103EC000CF911F91089586E0FE013796DE0111968D
:103ED00001900D928A95E1F78A859B85892B11F3D4
:103EE0008F81988589238F3FE9F22091600230E02D
:103EF000C9010196877099274091910248171906C8
:103F000071F40E944E13109260021092910286E0AA
:103F1000EAE5F2E0DF011D928A95E9F7C3CF96E06A
:103F2000929FD001939FB00D1124AF59BD4FFE0158
:103F3000319601900D929A95E1F7809360020E946C
:103F40003B07B0CF819FC00111248F599D4F0E9424
:103F50009B1D882309F4ADCF8091910290E00196DA
:103F600087709927809391029ECF1F920F920FB670
:103F70000F9211242F933F934F935F936F937F93EF
:103F80008F939F93AF93BF93CF93DF93EF93FF9361
:103F9000D091E900DF708091EC00C82FC17080FDE6
:103FA000C0E81092E9008091F000877F8093F000D4
:103FB00078940E9459131092E9008091F000886073
:103FC0008093F000CD2BCF70C093E900FF91EF916B
:103FD000DF91CF91BF91AF919F918F917F916F9121
:103FE0005F914F913F912F910F900FBE0F901F90B7
:103FF00018951F920F920FB60F9211242F933F9393
:104000004F935F936F937F938F939F93AF93BF93E0
:10401000EF93FF938091E10082FF09C08091E2005D
:1040200082FF05C08091E1008B7F8093E100809149
:10403000DA0080FF24C08091D80080FF20C08091EA
:10404000DA008E7F8093DA008091D90080FF9BC0D8
:1040500080E189BD82E189BD09B400FEFDCF81E028
:104060008093D6028091C902811109C00E94C603C3
:104070000E9491048091E20084608093E20080912C
:10408000E10080FF17C08091E20080FF13C08091A3
:10409000E2008E7F8093E2008091E2008061809355
:1040A000E2008091D80080628093D80019BC85E03E
:1040B0008093D6028091E10084FF29C08091E200C4
:1040C00084FF25C080E189BD82E189BD89B5982F33
:1040D000917080FFFBCF8091D8008F7D8093D800B6
:1040E0008091E1008F7E8093E1008091E2008F7EDD
:1040F0008093E2008091E20081608093E2008091F1
:10410000D702882309F445C084E08093D6028091C9
:10411000E10083FF27C08091E20083FF23C08091EC
:10412000E100877F8093E10082E08093D6021092C5
:10413000D7028091E1008E7F8093E1008091E200C0
:104140008E7F8093E2008091E20080618093E200A4
:1041500042E060E080E00E945F048091F0008860AF
:104160008093F000FF91EF91BF91AF919F918F915C
:104170007F916F915F914F913F912F910F900FBE63
:104180000F901F90189519BC1092D6021092C90278
:1041900076CF8091E30087FD93E09093D602B7CF6E
:1041A000CDB7DEB72A970FB6F894DEBF0FBECDBFEE
:1041B00010920503109207031092060380EC80937F
:1041C000CA0388E093E09093CC038093CB031092D2
:1041D000C9031092C8031092E5021092E4021092F3
:1041E000E7021092E6021092E9021092E8021092A1
:1041F000EB021092EA021092ED021092EC02109281
:10420000EF021092EE021092F1021092F002109260
:10421000F3021092F2021092F5021092F402109240
:10422000F7021092F6021092F9021092F802109220
:10423000FB021092FA021092FF021092FE028CE72B
:1042400095E09093E1028093E00287ED95E09093F2
:1042500001038093000383E595E09093FD02809332
:10426000FC0284E595E09093E3028093E20284B738
:10427000877F84BF0FB6F894A8958091600088610D
:1042800080936000109260000FBE80E890E00FB64F
:10429000F89480936100909361000FBE85B78068A9
:1042A00085BF85B7806885BF81E595E090939D01C6
:1042B00080939C010E94C6030E9491048091E200B9
:1042C00084608093E20078948091D6028823A1F0E4
:1042D0001091E9001F709091EC00892F817090FD82
:1042E00080E8182B1092E9008091E80083FD0E947D
:1042F00059131F701093E90082E084BD93E095BDCF
:104300009AEF97BD80936E0080E90E948A0981E947
:104310000E948A0982E90E948A0980EF0E948A0924
:1043200081EF0E948A0984EF0E948A0985EF0E942A
:104330008A091092A5021092B4021092A60210925D
:10434000B5021092A7021092B6020E94C5108FE328
:104350009CE90197F1F700C000000E94C510809110
:10436000B40280FF08C06FEF7FEF90E080E00E9412
:1043700031260E946C0C0E942812811102C00E94FA
:104380007016879A8F9882E08093800089E18093ED
:1043900081008FEF9FEF90938700809386000E94AB
:1043A000EB160E942812811102C00E94701682E052
:1043B00090E00E94FF258093C5020E941A129093FC
:1043C000AD028093AC0283E090E00E94FF25682F4D
:1043D00070E090E080E00E94FA070E94EB16809166
:1043E000AE02811133C00E942812811104C00E94C4
:1043F00070160E943E1388E090E00E9407266093AA
:10440000BD027093BE028093BF029093C0026E7F84
:1044100071F40E943E1388E090E00E9407266093AA
:10442000BD027093BE028093BF029093C0020E94AF
:10443000DB081092C3028091BD0280FF04C060E0DF
:1044400086950E94321681E08093AE028EE191E063
:104450009093B0028093AF0298E1A92EB12C20E492
:10446000722E66246394552453948091D60210E1F1
:1044700002E1853009F435C10E94C510882359F046
:104480008FB7F8944091CD035091CE036091CF0344
:104490007091D0038FBFA4EBB2E0E6ECF2E010E045
:1044A00000E0302F8D919191981709F43CC1292F8C
:1044B000282790E0FF24F394422F4F2109F42EC1C6
:1044C00099833A838F2191E009F490E09B830E94C5
:1044D00083068160782F9D838C8349815A816B810B
:1044E0008D810E94251FF801EA53FD4F8081F82637
:1044F000F0828091C3028823D1F18091C202E091C1
:10450000BD02E695E81BE093B902823009F022C1B2
:10451000F0E0E754FC4FE4910E2F10E081EAE82E22
:1045200080E1F82E8091BA02882361F01092BA02DD
:104530000E9483069093B8028093B7021092BC0247
:104540001092BB020E948306E091B702F091B8027C
:104550008E1B9F0B8F3F9F4750F4E00FF11FF0938E
:10456000B802E093B70287EB92E0F7010995E0917A
:104570000003F0910103309719F080EE92E0099565
:104580009FB7F8940091C9038091C803081708F4F5
:104590004DC1081B9FBFF12CE12C10E083E0882E59
:1045A000912CCC24C394D12C24E0322EE016F106B9
:1045B00008F440C10E9404089091C402891721F0B8
:1045C0000E9404088093C4028091D602843009F0CE
:1045D0004CCF809113018F708093E9009091E80097
:1045E00090FF43CF9091D602943009F03ECF809354
:1045F000E9009091F3008091F200892B09F435CF06
:104600008091E8008E778093E8000E94E5032DCF2B
:104610008091D602843009F440C080E00E94660890
:104620001092C3028091B302811116C05092B3025E
:104630008091BD02982F91709093B2028E7F8093EB
:10464000BD029FEFE0E7F2E09150E040F040E1F77B
:1046500000C000000E94AB0D1092B1020FB6F8949A
:10466000A895A09260000FBE7092600083B7817F12
:10467000846083BF83B7816083BF7894889583B754
:104680008E7F83BF0FB6F894A895809160008861F3
:1046900080936000109260000FBE8091D502882345
:1046A00001F10E94C5108091B4029091B502892B4E
:1046B0009091B602892BA9F019BD09BD09B400FE7D
:1046C000FDCF8091D8008F7D8093D8008091E0004D
:1046D00082608093E0008091E00081FDFCCF0E9429
:1046E0004E138091D602853009F492CF0E944E136A
:1046F0000E94EB160E9404081092B3028091B2024D
:10470000882349F08091BD0281608093BD0260E002
:1047100086950E9432160E941C16AECE9F5FFF0C3B
:10472000943009F0C9CE0F5F1F4F0330110509F017
:10473000B8CE8FEF8E838F8318860E9483068160A8
:10474000782F9A8789874E815F8168858A850E9444
:10475000251FCFCE863059F4F0E0EA54FC4FE491A7
:104760000E2F10E0B5EBEB2EB0E1FB2EDBCE893047
:1047700061F4E695F0E0ED54FC4FE4910E2F10E06B
:10478000AFE8EA2EAEE0FA2ECDCE8F3061F4E6959A
:10479000F0E0E055FC4FE4910E2F10E0F9EBEF2E26
:1047A000FEE0FF2EBFCE853159F4F0E0E355FC4F1B
:1047B000E4910E2F10E0E7E2EE2EEFE0FE2EB2CEF7
:1047C00008E210E055E7E52E5FE0F52E883109F4A8
:1047D000A9CE833249F4EBEAF3E00591149178E431
:1047E000E72E70E1F72E9ECE04EF11E04EEFE42E9F
:1047F0004FE0F42E843209F495CE00ED17E030E559
:10480000E32E35E0F32E853209F08CCE8E2F63E057
:104810000E943F25E92FF0E0E855FC4FE4910E2F70
:1048200010E060EEE62E6DE0F62E7CCE2091CA03FD
:10483000020FAFCE8091C80390E06091CA0370E090
:104840000E946D252091CB033091CC03280F391F96
:10485000F901408020900503F7EFF415E8F4609229
:10486000050320E040E0642D81E090E00E94D40246
:10487000209205032FB7F8948091C80390E0019629
:104880006091CA0370E00E946D258093C8032FBF1A
:10489000FFEFEF1AFF0A8ACE47FE52C024E022162D
:1048A00031F040920203D0920703C0920603842D98
:1048B0000E945905813069F08823D1F08230A9F037
:1048C000833099F0109205031092070310920603AB
:1048D000D1CF8093050320E040E0642D81E090E09B
:1048E0000E94D40210920503C5CF80930503C2CF66
:1048F00080EF4816E1F097EF4912E4CF20910603CC
:1049000030910703C901B4010E945925FC01E0520E
:10491000FD4F42A2C90101969093070380930603BD
:10492000209104034091030360910203D9CF309298
:10493000050340920203D0920703C09206039ACF68
:10494000222009F497CF2091060330910703C90173
:10495000B4010E945925AC01FC01E052FD4F42A276
:10496000C9010196909307038093060341305105D6
:1049700089F04230510509F07DCF20910403409128
:104980000303609102030E94D402809105038430E6
:1049900091F670CFE2E020E02E126CCFF0CF789449
:1049A0001F921FB61F9211248F939F93AF93BF93B3
:1049B0008091CD039091CE03A091CF03B091D0030D
:1049C0000196A11DB11D8093CD039093CE03A093BA
:1049D000CF03B093D003BF91AF919F918F911F9060
:1049E0001FBE1F9018951F921FB61F9211248F9300
:1049F0009F93AF93BF938091B102811113C08091B7
:104A0000CD039091CE03A091CF03B091D0034196F6
:104A1000A11DB11D8093CD039093CE03A093CF032E
:104A2000B093D003BF91AF919F918F911F901FBE04
:104A30001F9018952F932FB72F938F939F9380914B
:104A40008800909189008130914008F08F9A9F9161
:104A50008F912F912FBF2F9118958F981895DB016B
:104A60008F939F930E946626BF91AF91A29F800D66
:104A7000911DA39F900DB29F900D11240895991B35
:104A800079E004C0991F961708F0961B881F7A9545
:104A9000C9F78095089587FB082E062687FD819526
:104AA00067FD61950E943F250EF4919507FC819565
:104AB0000895AA1BBB1B51E107C0AA1FBB1FA61765
:104AC000B70710F0A61BB70B881F991F5A95A9F7B7
:104AD00080959095BC01CD01089597FB072E16F4A3
:104AE000009407D077FD09D00E94592507FC05D016
:104AF0003EF4909581959F4F0895709561957F4FF5
:104B00000895EE0FFF1F0590F491E02D09940E9487
:104B10009B26332312F48A1B9B0B0C9491250E9435
:104B20009B26B7FF0895821B930B08958F929F9247
:104B3000AF92BF92CF92DF92EF92FF92CF93DF932B
:104B4000EC01688179818A819B81611571058105FC
:104B5000910521F464E279ED8BE597E02DE133EFE7
:104B600041E050E00E94472649015A019B01AC01F7
:104B7000A7EAB1E40E9466266B017C01ACEEB4EFBB
:104B8000A50194010E947426DC01CB018C0D9D1DB2
:104B9000AE1DBF1DB7FF03C00197A109B0488883B0
:104BA0009983AA83BB839F77DF91CF91FF90EF908A
:104BB000DF90CF90BF90AF909F908F9008950E940C
:104BC0009625089580E091E00E9496250895B0E032
:104BD000A0E08093000190930101A0930201B093A3
:104BE00003010895FC014150504030F00190061639
:104BF000D1F73197CF010895882799270895F9991A
:104C0000FECF92BD81BDF89A992780B50895A6E19F
:104C1000B0E044E050E00C943926A8E1B0E042E076
:104C200050E00C943926262FF999FECF92BD81BD14
:104C3000F89A019700B4021639F01FBA20BD0FB6DA
:104C4000F894FA9AF99A0FBE08950396272F0E94B6
:104C500014260E941326252F0E941426242F0C941C
:104C600014260196272F0E9414260C941326DC018B
:104C7000CB01FC01F999FECF06C0F2BDE1BDF89A67
:104C8000319600B40D9241505040B8F70895052E6A
:104C900097FB1EF400940E945E2657FD07D00E94E9
:104CA000792607FC03D04EF40C945E26509540956F
:104CB000309521953F4F4F4F5F4F089590958095C8
:104CC000709561957F4F8F4F9F4F08950E949B264F
:104CD000A59F900DB49F900DA49F800D911D112450
:104CE0000895B7FF0C9466260E946626821B930BDC
:104CF0000895A1E21A2EAA1BBB1BFD010DC0AA1F1D
:104D0000BB1FEE1FFF1FA217B307E407F50720F034
:104D1000A21BB30BE40BF50B661F771F881F991FAF
:104D20001A9469F760957095809590959B01AC01F8
:104D3000BD01CF010895A29FB001B39FC001A39F01
:104D4000700D811D1124911DB29F700D811D1124C4
:104D5000911D0895F894FFCFEF0BEF0BF80BF80BB4
:104D6000FA0BF80BF80BF80BEF0BEF0BFF0BF80B34
:104D7000F80BFF0B3C146414041664140416971407
:104D8000B8140416B515C2154E1A4E1ACA1ACA1A04
:104D9000201B831A831A831A3A1B101C1F1C1F1C0A
:104DA0007B19A119A819AD19B219B719BC19C119E4
:104DB000C619CB19D019D519D719DC19DF19E21981
:084DC000E519E819EA19ED19E3
:104DC8000100000001191A1B1C1D1E1F20212201B1
:104DD8000201038340000001044000000100560561
:104DE8003F0C55053B0C370C01000102020202067C
:104DF80006060909090909090F0F0F0F0F0F1515E5
:104E080015181919191919191919191923242525E2
:104E180025252525818283E200E900EA00B500B650
:104E280000B700CD008301CC008A019201940121D2
:104E380002230224022502260227022A02B300B412
:104E4800006F00700002030200000100010101016F
:0C4E580001000101909192F0F1F4F500CE
:00000001FF
