:100000000C947E020C94C5020C94C5020C94C5029B
:100010000C94C5020C94C5020C94C5020C94C50244
:100020000C94C5020C94C5020C94E61F0C94A21FFC
:100030000C94F2240C94C5020C94C5020C94C502D5
:100040000C94C5020C942C250C94C5020C94C5028A
:100050000C9419250C94CE240C94C5020C94C50262
:100060000C94C5020C94C5020C94C5020C94C502F4
:100070000C94C5020C94C5020C94C5020C94C502E4
:100080000C94C5020C94C5020C94C5020C94C502D4
:100090000C94C5020C94C5020C94C5020C94C502C4
:1000A0000C94C5020C94C5020C94C502000000001B
:1000B0000000000000000000000000000000000040
:1000C0000000000000000000000000000000000030
:1000D0007E0F00D4FFFFFFC7000000780000000083
:1000E000000000002A2B2800000000000000000093
:1000F0000000000000000029000000002C1E342039
:10010000212224342627252E362D3738271E1F205E
:100110002122232425263333362E37381F040506A3
:100120000708090A0B0C0D0E0F10111213141516E7
:100130001718191A1B1C1D2F3130232D35040506E5
:100140000708090A0B0C0D0E0F10111213141516C7
:100150001718191A1B1C1D2F3130354C00010101D5
:100160000101010101010202020202020202020374
:100170000303030303030304040404040404050544
:100180000505050606060606070707070708080807
:1001900008090909090A0A0A0B0B0B0C0C0C0D0DB6
:1001A0000D0E0E0E0F0F0F1010111111121213134E
:1001B0001414151516161717181819191A1A1B1BC7
:1001C0001C1D1D1E1E1F2020212222232424252623
:1001D00026272829292A2B2C2D2D2E2F303132325B
:1001E000333435363738393A3B3C3D3E3F40414267
:1001F000434445464748494A4C4D4E4F505153544D
:10020000555658595A5B5D5E5F6162646566686900
:100210006B6C6D6F7072737577787A7B7D7E808280
:10022000838587888A8C8E8F91939596989A9C9EC9
:10023000A0A2A3A5A7A9ABADAFB1B3B5B7BABCBED9
:10024000C0C2C4C6C9CBCDCFD1D4D6D8DBDDDFE2A6
:10025000E4E7E9EBEEF0F3F5F8FAFDFFFFAA7F55CE
:10026000402223252628292A2C2D2F3032333536BB
:10027000383A3B3D3E4042434547494A4C4E505137
:10028000535557595A5C5E6062646668696B6D6F5E
:1002900071737577797B7D7F81838587898A8C8E61
:1002A00090929496989A9C9E9FA1A3A5A7A8AAAC69
:1002B000AEAFB1B3B4B6B8B9BBBCBEBFC1C2C3C5A3
:1002C000C6C7C9CACBCCCDCED0D1D2D2D3D4D5D645
:1002D000D7D7D8D9D9DADADBDBDBDCDCDCDCDCDD78
:1002E000DDDDDDDCDCDCDCDCDBDBDBDADAD9D9D85C
:1002F000D7D7D6D5D4D3D2D2D1D0CECDCCCBCAC9F4
:10030000C7C6C5C3C2C1BFBEBCBBB9B8B6B4B3B122
:10031000AFAEACAAA8A7A5A3A19F9E9C9A989694BD
:1003200092908E8C8A89878583817F7D7B79777592
:1003300073716F6D6B6968666462605E5C5A595771
:10034000555351504E4C4A4947454342403E3D3B30
:100350003A3836353332302F2D2C2A2928262523BA
:10036000225355425343524942450048656C6C6FD5
:1003700020576F726C642100295D2A5D2D000151A8
:10038000500A4F0AC45CCA5CC65C0100CB5CC75C07
:100390001E0F0500047F3F1F643214643214783C42
:1003A0001E1E140A0505010980A101850319012AF1
:1003B000B700150126B700950175108100C0050C26
:1003C0000901A101850419012AA002150126A00234
:1003D000950175108100C005010906A101050719E5
:1003E000E029E71500250195087501810295017541
:1003F0000881010507190029FF150026FF00950651
:1004000075088100050819012905950575019102F6
:10041000950175039101C009029F00040100A0FA33
:10042000090400000103010100092111010001225A
:1004300040000705810308000A09040100010300C8
:10044000000009211101000122320007058203206A
:10045000000A080B02020101000009040200000169
:10046000010000092401000109000103090403003F
:1004700002010300000724010001410006240201DB
:100480000100062402020200092403010301020103
:1004900000092403020401010100090504024000CF
:1004A0000500000525010101090583024000050042
:1004B0000005250101031201100100000008A80336
:1004C000E9A301000102000112034C0069006C0065
:1004D0006900740068002000360000001A03440020
:1004E0006100740075006C0061006200200054001F
:1004F00065006300680000000403090411241FBEA6
:10050000CFEFDAE0DEBFCDBF04B603FE27C0809197
:10051000520390915303A0915403B0915503873037
:10052000904BA740B04BD1F410925203109253035A
:10053000109254031092550314BE84B7877F84BF72
:100540000FB6F894A8958091600088618093600050
:10055000109260000FBEE0E0F8E3099523E0AAE9FD
:10056000B1E001C01D92A235B207E1F711E0A0E0B1
:10057000B1E0E6ECFDE402C005900D92AA39B107A6
:10058000D9F70E94BD200C94A9260C940000CF92AC
:10059000DF92EF92FF920F931F93CF93DF9300D0E0
:1005A0000F92CDB7DEB77C01162FD42EC22E8091CC
:1005B00083028430B9F5E0917802F09179023097A6
:1005C00009F440C0C701019763E070E00E9458251C
:1005D000CB01880F991F860F971F19834A83CB82FF
:1005E0004E2D481B9E012F5F3F4FBC018EE592E0D0
:1005F0000995E0917C02F0917D02309739F00C2D45
:100600002D2D412FB7018EE592E009950F900F90A7
:100610000F90DF91CF911F910F91FF90EF90DF909E
:10062000CF90089582E0E816F10409F45AC083E0FF
:10063000E816F104A9F081E0E816F10409F484C099
:10064000F12CE12CE0917A02F0917B02309789F253
:100650000C2D2D2D412FB7018EE592E00995C9CFC4
:10066000862F807F803A11F188F48038D1F0E091B4
:100670006202F0916302803929F7309719F3123F33
:1006800049F12C2D4D2D612F6F7027C0803E99F0C0
:10069000803FB1F0E0916002F0916102803B91F601
:1006A000ECCFE0916402F0916502E7CFE091660241
:1006B000F0916702E2CFE0916802F0916902DDCF2C
:1006C000623F09F0BFCFE0916A02F0916B02309770
:1006D00009F4B8CF2C2D4D2D62EF8EE592E00995EF
:1006E00088CF862F807F803DB9F0803FD1F0E091A8
:1006F0006C02F0916D02803C09F0A4CF309709F4B0
:10070000A1CF812F8D7F4D2D612F6F70813FC9F05B
:100710008EE592E009956DCFE0916E02F0916F0247
:10072000EDCFE0917002F0917102633F39F0613FCB
:1007300009F088CFE0917202F0917302309709F4CA
:1007400081CF4D2D612FE4CFE0917402F0917502BD
:10075000683F38F4663F09F075CFE0917602F0917A
:100760007702309709F46ECF612F8EE592E00995FC
:1007700040CFE8EDF0E080818E7F80831092E20030
:100780001092DA001092E100A0EEB0E08C9181604E
:100790008C9380818F77808319BCA7EDB0E08C911A
:1007A0008E7F8C9380818F7E808310924702089584
:1007B0002091E4003091E50095E6A9012091EC003C
:1007C000822F817020FF06C08091E80080FF06C064
:1007D00080E008952091E80022FD1AC08091540223
:1007E000882389F0853089F08091EB0085FD0FC06A
:1007F0002091E4003091E50042175307F9F291503F
:10080000E1F684E0089582E0089583E0089581E0B0
:100810000895EF92FF920F931F93CF937C018B016A
:100820000E94D803C82F811117C08091E80085FD70
:100830000BC08091E8008E778093E8000E94D80377
:10084000882399F3C82F08C0F70181917F01809315
:10085000F1000150110949F78C2FCF911F910F9191
:10086000FF90EF9008958091560287FF13C080910A
:10087000E80082FF06C08091E8008B778093E80053
:1008800004C0809154028111F2CF089580915402E6
:100890008823D9F38091E80080FFF8CF8091E800A9
:1008A0008E77ECCF982F9093E900242F762F50E08D
:1008B000891731F07091EC002091ED005091F0001B
:1008C00021FD07C09F5F973071F78093E90081E0B9
:1008D00008953091EB003E7F3093EB003091ED00B6
:1008E0003D7F3093ED003091EB0031603093EB00B1
:1008F0007093EC002093ED005093F0002091EE00F7
:1009000027FDE0CF80E00895CF92DF92EF92FF9233
:100910000F931F93CF93DF93C8EDD0E088818F7E34
:100920008883E7EDF0E080818160808384E082BF8E
:1009300081E08093470288818E7F888302EE10E0F9
:10094000F80110821092DA0081EEC82ED12CF60147
:10095000108288818F7788838881806888838881E6
:100960008F7D888319BC1092540210925502109208
:1009700053021092520290EEE92EF12CF701808181
:100980008B7F808388818160888342E060E080E0A3
:100990000E945204F60180818E7F8083F80180815D
:1009A00081608083808188608083F70180818E7F71
:1009B0008083888180618883DF91CF911F910F911F
:1009C000FF90EF90DF90CF900895FC0180915C0242
:1009D00090915D0286179707A0F06115710529F4C3
:1009E0009091E8009E779093E80090E06115710582
:1009F00051F4911108C08091E80082FF34C080E07A
:100A00000895BC01F2CF809154028823C1F1853052
:100A1000C1F18091E80083FD30C08091E80082FD43
:100A2000EACF8091E80080FFE1CF8091F300209130
:100A3000F200382F6115710519F02830310558F092
:100A400091E02830310509F090E02091E8002E7700
:100A50002093E800CBCF81918093F1006150710920
:100A60002F5F3F4FE7CF80915402882341F08530BC
:100A700041F08091E80083FFBECF81E0089582E0DD
:100A8000089583E00895089580E0089508950895F5
:100A90000895809149020895982F907F903BE9F046
:100AA00040F49039D1F0903AC1F09038B1F080E044
:100AB0000895903D19F020F4903CC9F782E0089524
:100AC000903E59F0903F99F7815F8F3080F7E82F83
:100AD000F0E0EB57FE4F8081089583E00895DF92A8
:100AE000EF92FF920F931F93CF93DF9300D000D02C
:100AF000CDB7DEB77B01142FD22E4A832B830C8314
:100B0000842F0E944C05811141C082E0E816F10457
:100B1000C1F183E0E816F10439F0EA94EF2829F5F1
:100B2000173F29F485E004C087E0073F09F084E01F
:100B30008983809154028430C1F4809113018F70B5
:100B40008093E90050E040E064E070E0CE0101965F
:100B50000E940904811109C08091E80085FD05C04B
:100B60008091E8008E778093E8000F900F900F90AF
:100B70000F90DF91CF911F910F91FF90EF90DF9039
:100B8000089587EFD812D3CF86E0D2CF12951F7089
:100B90001983CFCFCF92DF92EF92FF920F931F93E3
:100BA000CF93DF9300D000D000D00F92CDB7DEB747
:100BB0008C0108511F4F80915402843009F087C086
:100BC000809118018F708093E9008091E80082FF86
:100BD0007EC08091E80085FF7AC00E94D803811111
:100BE00013C084E0E82EF12CCE0101966C018091B7
:100BF000E80085FD61C08091E8008B778093E80074
:100C00000E94D803882399F38091E80085FD05C0F0
:100C10008091E8008B778093E800FA808F2D0E9406
:100C20004C05282FFD828B818E838C818F8321112F
:100C30000BC08981843041F1873031F1863031F148
:100C400021E0853009F0B7CF30E0E5E0F0E0EC0FCF
:100C5000FD1FE30FF11DF0804FB7F894D8011196F6
:100C6000EC911197F0E0CF01019612966C9170E033
:100C70000E946C25D8015C915817190649F44FBFA2
:100C80003F5F321710F397CF23E0DECF22E0DCCFB7
:100C900013968D919C911497E80FF91FF08211968D
:100CA0008C91119790E0019612966C9170E00E94E1
:100CB0006C25F8018183E3CF8091F100D6018D93FB
:100CC0006D01B1E0EB1AF10809F091CF9DCF2796A5
:100CD0000FB6F894DEBF0FBECDBFDF91CF911F914D
:100CE0000F91FF90EF90DF90CF9008952FB7F89479
:100CF00080914B0390914C03A0914D03B0914E0312
:100D00002FBF089580912102811110922102089530
:100D10008091200290911F02892B90911E02892BB5
:100D200080939C0190912102992391F0892B8093CB
:100D30009C0120E08EE991E0FC013191CF0131115D
:100D40002F5FF1E0843A9F07B9F721110E948206D4
:100D5000E0912F02F0913002309731F00280F38160
:100D6000E02D8CE991E009940895EEE9F1E091918C
:100D7000891303C0DF0111971C9291E0E43AF9074F
:100D8000B1F70895AEE9B1E0EFEF90E02D91821751
:100D900051F0EF3F19F4211101C0E92F9F5F963008
:100DA000A9F7EF3F09F408950E2E000CFF0BE4564F
:100DB000FE4F82830895E92FEE0F9E0F890F982F23
:100DC000977086958695869525E0829FF00111247F
:100DD000E85EFD4F50E040E080E0219130E0092ED8
:100DE00002C0369527950A94E2F721703327042E26
:100DF00001C0220F0A94EAF7822B4F5F5F4F453004
:100E0000510559F70895E92FEE0F9E0F890F982F7E
:100E1000977041E001C0440F9A95EAF78695869550
:100E2000869595E0899FF0011124E85EFD4F30E042
:100E300020E070E05191DF011197CB01022E02C03A
:100E4000969587950A94E2F781708195852784238A
:100E500085278C932F5F3F4F2530310559F7089533
:100E6000809117029091E601981301C008958F5F59
:100E70008770FACF882341F08095909120028923D2
:100E8000809320020C9488060895882339F090916D
:100E90002002982B909320020C94880608952091AC
:100EA000DC013091DD012817390771F09093DD01E5
:100EB0008093DC01E0912F02F0913002309721F015
:100EC0000084F185E02D099408952091DA01309194
:100ED000DB012817390771F09093DB018093DA0169
:100EE000E0912F02F0913002309721F00680F781D7
:100EF000E02D0994089590E080E00E94650790E05D
:100F000080E00E944F0710921F0210921E020C9464
:100F10008806609328027093290280932A02909396
:100F20002B020C947B070F931F9341E050E060E08D
:100F300070E004C0440F551F661F771F8A95D2F7D3
:100F4000CB01BA016095709580959095009128022B
:100F50001091290220912A0230912B0260237123E3
:100F6000822393231F910F910C94890790911D0266
:100F70008095892380931D02282F277071F4282FD4
:100F8000082E000C330B9217130639F085958595C2
:100F900085950E94930710921D0208950F931F9349
:100FA00041E050E060E070E004C0440F551F661F50
:100FB000771F8A95D2F78091280290912902A091FB
:100FC0002A02B0912B028A019B01082B192B2A2B94
:100FD0003B2BC901B8011F910F910C9489076093B5
:100FE00022027093230280932402909325020C9492
:100FF0007B07E0912F02F0913002309721F00190B1
:10100000F081E02D099480E00895882309F452C00E
:10101000823871F40E94F90781FF4CC089E30E9475
:10102000C2060E94880689E30E94B5060C948806D1
:10103000833859F40E94F90780FF3CC083E50E9481
:10104000C2060E94880683E5EFCF843859F40E94D7
:10105000F90782FF2FC087E40E94C2060E9488061B
:1010600087E4E2CF9CEF980F913AF0F290E2980F6C
:10107000983088F4877021E030E0A90102C0440F65
:10108000551F8A95E2F7CA01809590912002892325
:1010900080932002CBCF9BE5980F933020F490E013
:1010A00080E00C946507885A873120F490E080E056
:1010B0000C944F070895CF92DF92EF92FF92863003
:1010C00088F5811130C02091880030918900232B50
:1010D00051F090916F009D7F90936F0090916F0001
:1010E0009E7F90936F008F98282F30E0AFEFBFEF77
:1010F0000E949A2625E030E040E050E00E947826E9
:10110000C9012C3764E13607F8F469E070E00E9409
:1011100058257093890060938800FF90EF90DF90CE
:10112000CF90089585E02091880030918900232B8D
:10113000D9F690916F00926090936F0090916F003C
:10114000916090936F00D0CF2A50374D4F4F5F4F33
:10115000942F832F722F662725EF38E241E050E06D
:101160000E94782669017A01CA01B9010E942E25E0
:101170009B01AC01C701B6010E942E25672F782F75
:10118000892F99276115710521E08207910509F6DC
:101190006FEF7FEFBECFFA01811101C0FB0109940F
:1011A00080913C02982F9E7F61F4817082608093D1
:1011B0003C0280913F02893C18F088EC80933F020A
:1011C00008958635B0F381708465F1CFAF92BF92F8
:1011D000DF92EF92FF920F931F93CF93DF93182F1D
:1011E000062FE901493C08F048ECE42FF0E0E45A0E
:1011F000FE4F011110C0E4915E2F4E2F4983E8830A
:101200005A83DF91CF911F910F91FF90EF90DF9064
:10121000BF90AF900895202F30E04491D42EE42E5B
:10122000F12C56E0159FC0011124EFEFF0E0BF0153
:101230000E945825812F90E0880F991F55E5569FF1
:10124000D001579FB00D11248A1B9B0B982F990F2B
:10125000890F5F01A21AB30AAE9CD001AF9CB00DFA
:10126000BE9CB00D11245B2F089F80011124012F1B
:1012700011275F01A01AB10AAE9C8001AF9C100D2E
:10128000BE9C100D11245F01A81AB108A29EC001D6
:10129000A39E900DB29E900D1124892F9927E81BD3
:1012A000F90BEE9DC001EF9D900DFE9D900D112458
:1012B000E92F62307105A1F050F46115710509F450
:1012C0009DCF6130710581F0EB2F512F97CF6430A6
:1012D000710569F080F06630710509F48FCFF4CFA5
:1012E000E42F4B2F592F8ACFE42F412F87CFEB2F9D
:1012F000542F492F83CF4B2F5D2DE12F7FCFF894B3
:10130000E82FE295EF70F0E031A1282F2F7081E0F7
:1013100090E001C0880F2A95EAF7982F90959323C3
:1013200091A392A1892B82A37894089590912C0285
:1013300092FF06C0282F28712830F9F4877F846037
:1013400093FF06C0282F28712831F1F4877E84612D
:1013500020912D0220FF06C0382F38713830D9F483
:10136000877F816021FF06C0282F28712831D1F4A2
:10137000877E816194FD877E0895282F2471243013
:10138000F9F68B7F8860DCCF282F2471243101F798
:101390008B7E8861DDCF382F3171313019F78E7F28
:1013A0008860E0CF282F2171213121F78E7E88615E
:1013B000E1CFCF93DF93972F70E023E0929F600DF2
:1013C000711D1124FB0136E0839FE00DF11D1124F6
:1013D000EE0FFF1FE858FC4FC591D491CE01C238E3
:1013E000D105C9F108F03EC0C133D10509F49AC056
:1013F00058F5C932D10509F48EC0CA32D10509F4B5
:1014000098C0C11540E5D40708F0C1C0C11520E45B
:10141000D20708F02FC1C03ED10508F09EC0C03CE5
:10142000D10508F017C1C83AD10508F089C0C53AFE
:10143000D10508F007C1C130D10511F1209709F499
:1014400043C02497E8F440C0C533D10509F45CC01B
:10145000C933D105B1F620912C02237089F080EEBA
:1014600090E00EC0C33ED10591F168F4C03ED105B5
:10147000F9F0C23ED10529F620912C0222FD20C0B0
:10148000DF91CF910895C63ED10561F1C73ED105E8
:1014900081F1C43ED10509F0B4CF20912D0221FF86
:1014A000EFCF80912C0284FD0FC087EE90E0E8CF53
:1014B00020912C0220FD24C130912D0230FFE0CF7D
:1014C00083EE90E024FFDCCF90E080E0D9CF209144
:1014D0002C0222FD18C130912D0230FDC0CF24FF17
:1014E000CFCFF2CF20912C0223FFCACF24FDECCF27
:1014F000DCCF20912C0223FD09C130912D0231FF58
:10150000EECF84EE90E0BCCF20912C0225FFB8CF27
:1015100089E290E0B5CF20912C0225FFB1CF85E381
:1015200090E0AECF20912C0226FFAACF8AE290E075
:10153000A7CF20912C0226FFA3CF81E390E0A0CF7C
:10154000CF3BD10508F6C85AD0E0CC0FDD1FC95AF1
:10155000DE4F88819981946493CFC11530E2D3071F
:1015600050F4C11541E0D40708F08ACFC83ED10538
:1015700008F486CFA9CFC11580E3D80708F072C060
:10158000FE01FF70EE0FFF1FE45AFE4F68C0C11549
:1015900095E5D90748F5C11524E5D20708F099C0AB
:1015A000C11532E5D30750F4C11541E5D40708F45D
:1015B00065C09C2F8827816F906A62CF9C2F96957B
:1015C0009695AE0143705527C115D34508F072C0FA
:1015D00021E030E002C0220F331F4A95E2F740E2DB
:1015E000949FC001112462C0C11599E5D907A0F4E8
:1015F000C11528E5D20708F071C0C11536E5D3073B
:1016000008F062CF8C2F0E94960990E0982F8827CF
:1016100088279F71906234CFC1154AE5D40708F43A
:1016200062C0CE0190568115904208F04DCF8D2FAB
:101630008F710E94960990E0982F882788279F71C4
:101640008C2BE8CFC55AD0E0CC5ADE4F888190E091
:10165000906416CFFE01EE0FFF1FE452F04085911B
:1016600094910ECFCE019927D3FF02C0986C08CF7A
:10167000906C06CFCE019F70906A02CF9E01E4E08D
:1016800036952795EA95E1F723708C2F86958695F8
:10169000837030E2839FC0011124922BC37021E03C
:1016A00030E002C0220F331FCA95E2F7822B932B42
:1016B0009C68E6CE21E030E002C0220F331F4A953D
:1016C000E2F740E2949FC0011124822B932B9A6889
:1016D000D7CE9C2F8827846F906AD2CE9C2F8827E4
:1016E000806F906ACDCE8C2F8F700E94960934E067
:1016F000D695C7953A95E1F7CF709C2F9069C0CEEB
:1017000089E390E0BDCE82EE90E0BACE86EE90E026
:10171000B7CEBF92CF92DF92EF92FF920F931F93BB
:10172000CF93DF938C01C0902802D0902902E090E3
:101730002A02F0902B028091220290912302A09124
:101740002402B0912502C82AD92AEA2AFB2ACFE12D
:10175000D0E0BC2ED701C6010C2E04C0B695A795CB
:10176000979587950A94D2F780FD0EC0219788F748
:10177000B12C8B2DDF91CF911F910F91FF90EF90A6
:10178000DF90CF90BF900895B8018C2F0E94D909A7
:10179000019761F3EECFCF93DF93EC010E94890BA9
:1017A000BE01DF91CF910C94D9090E94CB0B292F58
:1017B0002F7092959F7092509E3078F4E92FF0E050
:1017C000E555F94D0C948025803F19F020F4883EB2
:1017D00020F481E00895843FE1F380E00895883E9D
:1017E000C0F3813FD1F7F5CF822F869586958695F8
:1017F0000895CF93DF9300D00F92CDB7DEB79091CD
:101800005402943019F589837B836A8382E0809344
:10181000E9008FEF9091E800815095FD06C095EDAD
:101820009A95F1F700008111F5CF8091E80085FFCE
:101830000DC050E040E063E070E0CE0101960E94F0
:1018400009048091E8008E778093E8000F900F9054
:101850000F90DF91CF910895BC0184E00C94F90BB7
:10186000BC0183E00C94F90BCF93DF93EC0181E092
:101870008093E9008FEF9091E800815095FD06C0BC
:1018800095ED9A95F1F700008111F5CF8091E80070
:1018900085FF14C050E040E068E070E0CE010E9497
:1018A00009048091E8008E778093E80088E0FE01CB
:1018B000AAE4B2E001900D928A95E1F7DF91CF9111
:1018C000089581E08093E00080E28093D800109238
:1018D000C9008FE19EE40197F1F700C0000087E0A6
:1018E00090EBDC018093520390935303A093540335
:1018F000B093550388E19CE00FB6F894A8958093C7
:1019000060000FBE90936000FFCFCF93C82F882355
:1019100009F488C08238C1F40E94F90781FD82C0B1
:1019200089E30E94C2060E9488062FEF81EE94E0B0
:10193000215080409040E1F700C0000089E30E9400
:10194000B506CF910C9488068338A1F40E94F9075C
:1019500080FD68C083E50E94C2060E9488062FEFC2
:1019600081EE94E0215080409040E1F700C00000FB
:1019700083E5E5CF8438A1F40E94F90782FD52C0C7
:1019800087E40E94C2060E9488062FEF81EE94E051
:10199000215080409040E1F700C0000087E4CFCFA5
:1019A0008CEF8C0F813A68F4EEE9F1E08191C81771
:1019B00099F121E0E43AF207C9F78C2F0E94C206A0
:1019C000C0CF80E28C0F883068F4C77021E030E02F
:1019D00001C0220FCA95EAF780912002822B8093E2
:1019E0002002AFCFEBE5EC0FE33040F4F0E0EC5A2F
:1019F000FE4F808190E0CF910C946507C85AC731A3
:101A000088F4EC2FF0E0EE0FFF1FE95AFE4F8081C3
:101A10009181CF910C944F078C2F0E94B5060E94A4
:101A20008806CBCFCF9108951F93CF93DF93182FC4
:101A3000D0E0C0E0893311F4C0E5D0E0812F0E94EE
:101A4000850C209731F4812FDF91CF911F910C9459
:101A500005088FE99FE00197F1F700C0000021978A
:101A6000F0CF0F931F93CF93DF93C62FD42F022F66
:101A7000FC0182818823A1F0609351030E947606C5
:101A80009093500380934F03C77081E001C0880F8B
:101A9000CA95EAF7DF91CF911F910F910C944507FA
:101AA00080915103681340C020914F03309150033F
:101AB0004FB7F89480914B0390914C03A0914D0344
:101AC000B0914E034FBF821B930B883C910560F58C
:101AD00010E21D0F6D17B9F080E2860F883040F4D8
:101AE000C77081E001C0880FCA95EAF70E943A07E3
:101AF000183048F481E09D2F977001C0880F9A95A7
:101B0000EAF70E944507802F0E94140D183098F4C0
:101B1000D77081E001C0880FDA95EAF7DF91CF91A5
:101B20001F910F910C943A07C77081E001C0880F94
:101B3000CA95EAF7F3CFDF91CF911F910F910895E6
:101B400080913C0280FD0AC0EAEAF1E01182108235
:101B50001282339651E0EC3BF507C1F76E9A3EB125
:101B60003F7B2EB120644FB7F8948AEA91E0FC01E4
:101B70005191CF0168E02EB9000000C057FF3EB977
:101B8000550F000000C000C000C03EB900C06A95FB
:101B900091F7F1E08C3B9F0751F74FBF8FE594E041
:101BA0000197F1F700C0000008954F925F926F9285
:101BB0007F928F929F92AF92BF92CF92DF92EF92DD
:101BC000FF920F931F93CF93DF93FC0162804480B9
:101BD00081E08483E1E6F2E07490E0EEF2E0E491EB
:101BE000CCEBD1E03AEAE32E31E0F32E4AEDC42EFD
:101BF00041E0D42E52E0A52EBB24B39488248A94CD
:101C0000912C55245A94E7190E2F10E082E0861586
:101C100030F080913D02888380913E02898341109B
:101C200021C01B821A8297014A81698188810E94A2
:101C3000E608259683E0E80EF11CCC16DD0631F7A8
:101C4000DF91CF911F910F91FF90EF90DF90CF9098
:101C5000BF90AF909F908F907F906F905F904F90CC
:101C60000C94A00D8B818823E9F081508B83859D96
:101C7000C00111246C8170E00E945825FB01FF27F0
:101C8000EF59FD4F8491E82FE719E59DC00111241C
:101C9000B8010E94582580913F02689FB00111242D
:101CA0007A83C1CF0E94E12520913F0226952158D9
:101CB0002A9DA0012B9D500D1124452F55278417D7
:101CC00095070CF0B0CF82E0861588F40E94E125DC
:101CD000B4010E946C2588830E94E12520913E0278
:101CE0002695622F70E00E946C25280F29831A82A6
:101CF00080913F02893C20F088EC8C838B8393CFCA
:101D00008431D8F784E1F9CFEF92FF921F93CF93FC
:101D1000DF93EC018AEAE82E81E0F82E10E08C8156
:101D2000970140913F0260913E02810F0E94E608B8
:101D3000165D83E0E80EF11C1C3F89F70E94A00DA0
:101D40009A818C8190FF08C08F5F8C83DF91CF9147
:101D50001F91FF90EF9008958150F7CFBF92CF92DF
:101D6000DF92EF92FF920F931F93CF93DF93FC01CB
:101D70008281DD24DA9480FD02C0DD24D3940AEA56
:101D800011E0D0E0C0E026E0B22EF801118210820E
:101D9000128294E0E92EF12CC12C8091A7018C0DC8
:101DA00087300CF43DC06B2D0E944A25892F082EE8
:101DB000000C990B8C179D0791F480913F028E9D2A
:101DC000A0018F9D500D1124559547955595479528
:101DD000980160913E0280913D020E94E608CD0C80
:101DE000F1E0EF1AF108C9F621960D5F1F4FC630DA
:101DF000D10559F60E94A00D8091A70191E0D9125A
:101E000015C0811111C085E08093A701DF91CF91AA
:101E10001F910F91FF90EF90DF90CF90BF900895AA
:101E200087FFC5CF8A5FC3CF8150EECF90E0019688
:101E3000BE010E946C25E8CF0F931F93CF93DF93D1
:101E4000CAEAD1E0FE01118210821282339681E04B
:101E5000EC3BF807C1F710E000E08091A801082EE4
:101E6000000C990B081719078CF180911001082EAE
:101E7000000C990B801791074CF19E0140913F0295
:101E800060913E0280913D020E94E6080F5F1F4F65
:101E900023960630110509F70E94A00D80910F01CD
:101EA0009091A801980F9093A80120911001280FFC
:101EB00020931001121614F495301CF08195809334
:101EC0000F01DF91CF911F910F9108951982188210
:101ED0001A82DCCF8F929F92AF92BF92CF92DF9205
:101EE000EF92FF920F931F93CF93DF93EC014C81FE
:101EF000042F10E09801D8010E949A269B01AC01A2
:101F00000E9465264B015C01E0E2F0E0E01BF10B72
:101F1000A5E5B0E0AC019B010E9465266B017C0148
:101F20009F01DF010E9486259B01AC010E94702663
:101F30009B01AC01280D391D4A1D5B1DC701B6016F
:101F40000E947826F22E822F90E039E23F15D8F1D8
:101F500043E0249F9001112435952795122F109569
:101F60009AEAC92E91E0D92E00E085E5E82EEF1817
:101F70008E2D01FD8F2D9601412F60913E020E9412
:101F8000E6080F5F53E0C50ED11C063089F70E94AA
:101F9000A00D9C8181E0992319F0903219F48FEF04
:101FA0008093110180911101890F8C83DF91CF9172
:101FB0001F910F91FF90EF90DF90CF90BF90AF9067
:101FC0009F908F90089525E530E0A901481B590B9B
:101FD000CA019A01220F331F280F391F37FFBCCFC8
:101FE0002F5F3F4FB9CFEF92FF920F931F93CF9385
:101FF000DF938C01CAEAD1E0F12CE12CF801948145
:1020000060913E0280913D02F3E0EF16F104FCF492
:102010009923F9F09E0140913F020E94E6082FEFBC
:10202000E21AF20A239686E0E816F10439F70E94D4
:10203000A00DF801848190E0019681709927848336
:10204000DF91CF911F910F91FF90EF900895992309
:1020500009F39E0140E0E1CF90913C0290FF0CC05B
:10206000EAEAF1E0818360834283339691E0EC3BBE
:10207000F907C1F70C94A00D08950F931F93CF9308
:10208000DF9300D00F92CDB7DEB78C018091A9010C
:1020900081110AC09E012F5F3F4F48EC6FEF0E94F5
:1020A000E6088A818093A901F8016481613069F0B2
:1020B0008091A90140E0662361F040E0623011F4B4
:1020C0004091A90180E060E004C06091A90140E076
:1020D00080E00E942C10F801848190E0019663E07A
:1020E00070E00E946C2584830F900F900F90DF9119
:1020F000CF911F910F910895CF93DF9300D00F924E
:10210000CDB7DEB790913C0290FF0AC09E012F5FD1
:102110003F4F0E94E6084B8169818A810E942C1002
:102120000F900F900F90DF91CF910895CF93DF9391
:10213000EC01EC81F0E0EF59FD4F4491ECE3F2E06B
:10214000628181810E947C108C818F5F8C83DF9102
:10215000CF910895CF93DF93EC01ECE3F2E043815C
:1021600062818C810E947C108C818F5F8C83DF91D7
:10217000CF910895BF92CF92DF92EF92FF920F938B
:102180001F93CF93DF9384E9E82E81E0F82EC6E217
:10219000D2E0C12CD12C01E010E0F70181917F0148
:1021A000F894E82FE295EF70F0E021A18F70A8017C
:1021B00002C0440F551F8A95E2F7CA01922F982B4F
:1021C00091A392A18095892382A3789400C0E6E927
:1021D000F1E030E020E0B12C4191A42FA295AF7046
:1021E000B0E090968C9190E04F7002C095958795E5
:1021F0004A95E2F780FD4BC0802F022E01C0880F68
:102200000A94EAF7B82A2F5F3F4F2330310521F7B0
:10221000F701319780810E947F09C11003C050EA05
:102220005A95F1F78881B816A1F1B88281E0D82AD1
:10223000219681E0C81228C0DD2069F1C092A60174
:102240000E9476069093A5018093A4012091A40199
:102250003091A5014FB7F89480914B0390914C03B6
:10226000A0914D03B0914E034FBF821B930B069775
:10227000B0F08091260280933402809127028093EF
:1022800035021092A6010BC0CC24C39486CF80E007
:10229000B9CF80E0CCCF8091A6018111D7CF8D2D11
:1022A000DF91CF911F910F91FF90EF90DF90CF9032
:1022B000BF900895AF92BF92CF92DF92EF92FF92BC
:1022C0000F931F93CF93DF93EC018AE0A82EFE01BA
:1022D0002491222309F494C0213009F03EC03196A4
:1022E0008491813031F42296FE0184910E94140D74
:1022F00007C0823039F42296FE0184910E94850C39
:102300002196E5CF833031F42296FE0184910E941C
:102310000508F6CF843009F071C02296FE012491A1
:1023200090E080E0FE0131962053330B2A303105D6
:1023300048F0019728F3EFE9FFE03197F1F700C08B
:102340000000F7CFA89EA001A99E500D1124C9013D
:10235000840F951F2491EF01E5CFE22FF0E0E452C6
:10236000FF4FB490822F86958695869590E0FC016C
:10237000E453FF4FE4902770F12C022E02C0F59435
:10238000E7940A94E2F731E0E322FF24FC01E454ED
:10239000FF4FC490D12C022E02C0D594C7940A944A
:1023A000E2F7E1E0CE22DD24FC01E455FF4F049189
:1023B00010E002C0159507952A95E2F701701127E4
:1023C000E114F10419F081EE0E94850CC114D104CE
:1023D00019F086EE0E94850C8B2D0E94140DCD28DD
:1023E00019F086EE0E940508EF2819F081EE0E9490
:1023F0000508012B09F484CF8CE278CFEF0180CF60
:10240000DF91CF911F910F91FF90EF90DF90CF90D0
:10241000BF90AF900895CF9384E090E00E94FE2596
:10242000C82F81E290E00E94FE25982F8C2FCF913B
:10243000089590E080E00E940C2621E08B3E9E4FA4
:1024400009F020E0822F0895CF92DF92EF92FF9261
:102450006B017C010E94D008B701A60188E090E0E2
:10246000FF90EF90DF90CF900C9424265F926F92B4
:102470007F928F929F92AF92BF92CF92DF92EF9214
:10248000FF920F931F93CF93DF9300D00F92CDB79E
:10249000DEB7182F762E042F622E90913C0290FF0B
:1024A00029C0E92FE695AE2FB0E0A75DBE4F8C9115
:1024B000809341029E7F923081F59E012F5F3F4FB6
:1024C000812F0E94E6084B8169818A810E942C102D
:1024D00010933D0270923E0200933F02662051F03D
:1024E00060913C0270913D0280913E0290913F02CA
:1024F0000E9424120F900F900F90DF91CF911F91A7
:102500000F91FF90EF90DF90CF90BF90AF909F9092
:102510008F907F906F905F900895823019F40091B2
:102520003F02D6CF863019F410913D02D1CF8930C9
:10253000D9F3893169F6E9518E2F8170582EE695CD
:10254000F0E0E45AFD4FA590B490BB248AEAE82E4F
:1025500081E0F82ED12CC12C96E0892E912CC60159
:10256000B4010E945825812F511013C0860F970186
:10257000402F672D0E94E608CA0CDB1C83E0E80EA2
:10258000F11C8CEBE81681E0F80649F70E94A00DDB
:102590009FCF861BECCFECE3F2E0438128E0421BA7
:1025A00008F440E021E0628181810C943612ECE372
:1025B000F2E0438128E0420F08F44FEF21E062810E
:1025C00081810C943612ECE3F2E0628128E0621B18
:1025D00008F460E021E0438181810C943612ECE341
:1025E000F2E0628128E0620F08F46FEF21E043819E
:1025F00081810C943612ECE3F2E0818121E0438189
:10260000628182500C943612ECE3F2E0818121E089
:10261000438162818E5F0C94361280914002882340
:1026200019F081508093400260913C0270913D020C
:1026300080913E0290913F020C94241280914002BE
:10264000833018F48F5F8093400260913C02709158
:102650003D0280913E0290913F020C942412ECE3E3
:10266000F2E083E0808311828FEF828388EC8383A2
:10267000148260817181828193810C942412109262
:102680002002EEE9F1E086E0DF011D928A95E9F78C
:102690000C947B071F93CF93DF93CDB7DEB7AA9738
:1026A0000FB6F894DEBF0FBECDBF86E592E0209155
:1026B000F100FC012193CF01F2E08E359F07B9F7BD
:1026C00080915702833009F46FC0B8F4813009F467
:1026D00046C0823009F4B0C08091E80083FF85C213
:1026E00080915602909157029A3008F07EC2E92FED
:1026F000F0E0E754F94D0C9480258A3009F48BC042
:102700008B3009F46EC0893039F7809156028132DE
:1027100019F780915A0290915B020297E8F6809136
:10272000E800877F8093E8008091E80082FF37C04F
:102730009091F3008091F200029729F48091F100CA
:102740008B7F813021F48091F10080934902809148
:10275000E8008B778093E8000E943304BDCF80911E
:102760005602813A09F0B8CF8091E800877F8093C4
:10277000E80080915A0290915B02892B61F468E035
:102780008AE492E070E00E94E5048091E8008B7793
:102790008093E800A1CF60E090E080E0F3CF8091EB
:1027A00054028111C1CF98CF80915602813A09F02D
:1027B00093CF80915A0290915B02892B09F08CCFC4
:1027C0008091E800877F8093E8008091E80080FF97
:1027D000FCCF809128018093F1008091E8008E77F2
:1027E000B9CF80915602813209F076CF80915A029A
:1027F00090915B02892B09F06FCF8091E800877F71
:102800008093E8000E94330480915802809328014D
:102810000E943F1361CF80915602813209F05CCF54
:102820008091E800877F8093E8000E9433048091C4
:1028300059028093480250CF80915602813A09F0A4
:102840004BCF8091E800877F8093E8008091E8007B
:1028500080FFFCCF80914802BECF803899F082384B
:1028600009F0C3C180915A028F70873008F0BDC152
:102870008093E9008091EB0085FB882780F9109216
:10288000E90006C08091520290915302911182603A
:102890009091E800977F9093E8008093F100109268
:1028A000F1008091E8008E779CC1882309F48AC1E9
:1028B000823009F09AC18091580281118DC18091B6
:1028C0005A028F702FEF280F263008F08EC18093A8
:1028D000E9002091EB0020FF7FC1933031F480911B
:1028E000EB0080628093EB0077C19091EB009061E8
:1028F0009093EB0021E030E001C0220F8A95EAF7C7
:102900002093EA001092EA008091EB008860EACF01
:1029100081116BC1109158021F778091E30080787C
:10292000812B8093E3008091E800877F8093E8000B
:102930000E9433048091E80080FFFCCF8091E30087
:1029400080688093E30082E0111183E08093540259
:102950004CC18058823008F048C180915802909153
:1029600059028C3D23E09207A1F583E08A838AE235
:1029700089834FB7F894DE01139620E03EE051E2E0
:10298000E32FF0E050935700E49120FF03C0E2955D
:10299000EF703F5FEF708E2F90E0EA30C0F0C79687
:1029A0008D939D932F5F243159F74FBF8091E8009D
:1029B000877F8093E8006AE270E0CE0101960E9472
:1029C000E5048091E8008B778093E8000EC1C09603
:1029D000E7CF40915A0250915B02292F33272330D1
:1029E000310509F444C078F52130310509F46FC090
:1029F0008FE990E0E7E1F4E02230310509F0F5C01D
:102A00002091E800277F2093E80020915C0230911C
:102A10005D028217930708F49C0140E021153105FF
:102A200009F064C0411162C08091E80082FDC9CF05
:102A300080915402882329F2853019F28091E800B0
:102A400083FFF2CFBECF21323105A9F12232310509
:102A500009F0CBC04115510509F443C0413051057F
:102A600009F0C3C082E390E0E5EAF3E0C9CF99271B
:102A700081309105C1F0009759F0029709F0B5C077
:102A8000E8ECF4E0E4918E2F90E0E8ECF4E007C08D
:102A9000E8EFF4E0E4918E2F90E0E8EFF4E00097A7
:102AA00009F4A3C0ADCFECEDF4E0E4918E2F90E0FB
:102AB000ECEDF4E0F4CF4115510571F041305105D2
:102AC00009F093C089E090E0E2E4F4E099CF82E17C
:102AD00090E0E6EBF4E094CF89E090E0E9E2F4E006
:102AE0008FCF80E490E0E7EDF3E08ACF809154024D
:102AF000882309F466CF853009F463CF8091E8001C
:102B000083FD5FCF8091E80082FD8ECF8091E80049
:102B100080FF84CF9091F3008091F2002115310560
:102B200019F08830910550F041E0089709F040E035
:102B30008091E8008E778093E80070CF44914093B5
:102B4000F1003196215031090196E8CF803809F023
:102B50004CC08091E800877F8093E8008091550207
:102B60008093F1009ECE811140C010915802123026
:102B7000E0F58091E800877F8093E800109355028C
:102B80000E943304112311F084E005C08091E3001A
:102B900087FDFACF81E08093540242E061EC81E04E
:102BA0000E94520442E261EC82E00E94520442E33D
:102BB00061E883E00E94520442E361E884E00E94FD
:102BC000520413C080915802813079F481E093302F
:102BD00009F080E0809353021092E9008091E800B0
:102BE000877F8093E8000E9433048091E80083FF90
:102BF0000AC08091E800877F8093E8008091EB0015
:102C000080628093EB00AA960FB6F894DEBF0FBEE9
:102C1000CDBFDF91CF911F91089560913C026695E1
:102C200070E04BE050E084E091E00E94F125892BB8
:102C300019F481E0809342020E9476069093370255
:102C400080933602089590913C0290FF36C09170B7
:102C5000811129C0926090933C02662351F06091EB
:102C60003C0270913D0280913E0290913F020E9491
:102C7000241260913C02669570E04BE050E084E0E5
:102C800091E00E94F125892BA9F01092420281E087
:102C90008093390220E040913F0260913E02809192
:102CA0003D020C9436128B3210F09465D4CF880F0D
:102CB000982BD1CF0E940D16EACF089561E00C94B5
:102CC00023166BEE7EEF90E080E00E94302660E0FD
:102CD00082E090E00E94122660E083E090E00E9493
:102CE00012261092220210922302109224021092B5
:102CF000250260E084E090E00E94122660E081E21C
:102D000090E00E94122660E085E090E00E9412268A
:102D100060E086E090E00E9412266FEF87E090E08E
:102D20000E94122640E050E0BA0188E090E00E9444
:102D3000242660E08DE090E00E94122640E050E002
:102D4000BA0188E190E00E94242660E087E190E0EB
:102D50000E94122640E050E0BA018CE190E00E940F
:102D6000242660E080E290E00E94122640E050E0DD
:102D7000BA0188E190E00E942426ECE3F2E0808131
:102D80008160808386950E945E1621E044E66AEFAA
:102D900080E00E94361289E00E945E1640E050E01A
:102DA000BA018FE090E00E94242640E050E0BA0192
:102DB00083E190E00C9424260E941912811102C034
:102DC0000E94611686E090E00E94FE258093DE015D
:102DD000803320F0877088628093DE019091DE015D
:102DE000892F817090FF04C0892F869586958695DE
:102DF0000C945B0880913C028695815009F48AE22C
:102E000061E00C94231680913C0286958F5F8B3293
:102E100008F081E061E00C94231690913C0290FF51
:102E200007C09695981720F0961710F40C94031786
:102E30000C945E164F925F926F927F928F929F9248
:102E4000AF92BF92CF92DF92EF92FF920F931F93B8
:102E5000CF93DF9300D000D00F92CDB7DEB77C01C7
:102E6000FC0183819481892B39F01081D180812FDD
:102E70008D218F3F09F054C50F900F900F900F9048
:102E80000F90DF91CF911F910F91FF90EF90DF9006
:102E9000CF90BF90AF909F908F907F906F905F90FA
:102EA0004F9008950E94890B082F682F89819A817D
:102EB0000E940307E12FF0E023E0D29EE00DF11D18
:102EC000112436E0039FE00DF11D1124EE0FFF1FCA
:102ED000E858FC4F05911491F70182810932FDE514
:102EE0001F07B1F10A322DE51207C9F1F7019281EE
:102EF000992309F487C50E3BFCE51F0709F497C029
:102F000098F50C3B3CE5130709F44EC00D3B8CE5EE
:102F1000180709F484C0043F2CE5120709F4DAC04D
:102F200008F01BC5093D8CE5180709F4CFC00A3D20
:102F3000ECE51E0709F4DAC0083DFCE51F0709F0BF
:102F400018C526E241EE61EEC7010E94310D45C071
:102F5000882361F28BE693E00E945A11C7CF882341
:102F600029F281E693E0F8CF003CECE51E0709F476
:102F700090C008F47AC0013C2CE5120761F69091EC
:102F8000DE01892F8695869586958F5F8F71977064
:102F9000863008F098C0880F880F880F892B80939F
:102FA000DE018091DE014BC08091DE018770886276
:102FB0008093DE01887F91E009F490E08091DE014A
:102FC00090FB80F98093DE0185E00E945B086091B0
:102FD000DE0186E090E00E94122680911D0287703B
:102FE00009F44ACFF7018281882309F445CF82E0B2
:102FF0000F900F900F900F900F90DF91CF911F9136
:103000000F91FF90EF90DF90CF90BF90AF909F9087
:103010008F907F906F905F904F900C94B607809147
:10302000DE0187708E7F8093DE0180E0CECF8091BD
:10303000DE01982F987F89F088508093DE01887F89
:1030400091E009F490E06091DE0190FB60F96093FB
:10305000DE0186E090E00E9412268091DE018695D6
:10306000869586950E945B08B8CF8091DE01982FE7
:10307000969596959695953040F49F5F990F990F88
:10308000990F8770892B8093DE016091DE0161606A
:10309000DECF6091DE0160FF09C06E7F6093DE01CC
:1030A00086E090E00E94122680E0DCCF60FD95CFA4
:1030B00061606093DE01613019F489E08093DE0184
:1030C0006091DE01C6CF9093DE016BCF27E245EE23
:1030D00065EE3ACF26E241EE60EE36CF27E245EECE
:1030E00064EE32CF26E241EE62EE2ECF28E241E0DE
:1030F000EFCF80912C0280610630FCE51F0709F4B8
:103100008BC080912C02886007301C4508F484C075
:1031100080912C02806280C080912C028D7F0C30C7
:103120003CE5130709F478C070F480912C028C60A0
:103130000A309CE5190709F46FC008F47CC080913F
:103140002C028E7F69C080912C02877F0E30FCE5B7
:103150001F0709F461C080912C028B7F0F301C4542
:1031600008F45AC080912C028F7E56C00C3F3CE57B
:10317000130709F458C030F503319CE5190709F429
:1031800068C078F40131FCE51F0709F45EC0023124
:103190001C4509F027C40E943F1380912C028F77B1
:1031A0003BC005313CE5130709F45BC008F46FC070
:1031B00080912D0281600B3F1C4509F013C4809360
:1031C0002D0210C40115EDE51E0709F446C088F470
:1031D00080912D028D7F0E3F2CE5120781F38091A7
:1031E0002D028E7F0F3F1C4550F380912D0283608E
:1031F000E6CF02308DE5180709F452C0F0F160E027
:1032000003301D4509F0EEC38EE090E00E941226C7
:10321000E9C380912C02816080932C02E3C38091EA
:103220002C028460F9CF80912D028260C8CF8091FA
:103230002C028064F1CF0E943F1380912C028068A1
:10324000EBCF80912C028F7DE7CF80912C028F7B7A
:10325000E3CF80912C02837FDFCF80912D028C7F82
:10326000AECF80912C0282FB992790F921E0922722
:1032700090FB82F990FB83F9CFCF80912D02982F9C
:10328000909591708E7F892B90FB81F998CF0E9449
:103290003F1390912C02892F97FB87F98058BCCF60
:1032A00061E0B2CF809120020631FCE51F0709F0F2
:1032B00048C38A7A91E009F490E09093DF0181118C
:1032C00006C089E20E94C2060E94880686CE85E377
:1032D000F9CF85E3B5C380913C0280FF1BC08E7F90
:1032E00080933C0260913C0270913D0280913E02CD
:1032F00090913F020E942412109242022FEF30E779
:1033000082E0215030408040E1F700C000000E9480
:10331000A00D63CE816080933C0286950E945E166C
:103320005CCE4AEF56E163E077E10E94CB0855CED0
:1033300043E057E16AEF76E1F8CF4BEF52E164E00A
:1033400073E1F3CF44E053E16BEF72E1EECF43EE74
:1033500052E16FEE72E1E9CF4FEE52E163EE72E1BE
:10336000E4CF4BEC52E167ED72E1DFCF47ED52E184
:103370006BEC72E1DACF4DE053E16EE173E1D5CF52
:103380004EE153E16DE073E1D0CF81E0C7CF65E05E
:1033900082E00E940D1721CE68E086E0FACF6EE051
:1033A00089E0F7CF64E18FE0F4CF67E185E1F1CF09
:1033B00088E1B4CF62E289E1ECCF83E2AFCF0115BF
:1033C000ECE51E0709F445C00F3D1C4509F44EC04D
:1033D000F70100811181992309F44BC0C8010E94B3
:1033E000890BD82E682FC8010E940307B8018D2DC4
:1033F0000E94D9098C01882EF701D280A580A29461
:103400004FE0A42280911D028770A1F0CD2CDD2019
:1034100091F0812F807F803421F080E2800F88300E
:1034200048F082E00E94B60780911D028770CC248C
:10343000C3948111C12CB12EB2943FE0B322FBE0C2
:10344000FB1508F450C0EB2DF0E0ED53F94D0C9452
:1034500080250E943F132FEF34E38CE02150304051
:103460008040E1F700C000000E94610C0E946116DC
:10347000B4CDC8010E94DB06D82EB8CF212F2F7003
:10348000A22E107F19F0A29420EFA222DD20C9F015
:10349000AA2069F080E2800F883010F081100BC004
:1034A00080912002A82AA09220020E948806802FE4
:1034B0000E94850C18C080911F02A82AA0921F02AA
:1034C000F4CF802F0E940508AA2069F0A094005E26
:1034D000083010F0811045C080912002A822A092EF
:1034E00020020E948806EB2DE850FF0B349710F461
:1034F0000E94F907CC20A9F080911D0280FD11C027
:10350000F70112828595859585950E94CE07C701A2
:103510000E941A1780911D028595859585950E94B8
:10352000930785E0F701DE01119601900D928A95CF
:10353000E1F789819A810E94DB069A81E981F0E0B6
:1035400023E0929FE00DF11D112436E0839FE00DF2
:10355000F11D1124EE0FFF1FE858FC4F8591949147
:103560008BCC80911F02A822A0921F02BACF312FCC
:103570003F70932E107F103219F0929490EF9922A1
:10358000882071F081E0881661F1DD20B9F1AA2070
:1035900071F1F701858180FF8ACF8F70858327C005
:1035A000DD2091F090912102892D892BA11003C07B
:1035B0000E94450798CFE1E0AE12FACF891709F4CF
:1035C00092CF809321028FCFA11006C00E94820665
:1035D000892D0E943A0787CFF1E0AF1609F483CF17
:1035E000F5CFDD2031F025E02A1508F47CCF892DB8
:1035F000DFCF34E03A1508F476CFEACFAA2041F3C2
:10360000F9E38F1286C12FEF37EE83E0215030406F
:103610008040E1F700C000007CC1812F869586952F
:10362000837061F0813009F05ECFC8019370D110D2
:1036300002C090E080E00E944F0755CFC801937010
:10364000D11002C090E080E00E9465074CCF812F2E
:10365000837009F066C0D11046CF802F8295869581
:103660008770880F880F602F6F70462E512C712C39
:10367000612C082E04C0440C551C661C771C0A944F
:10368000D2F740E050E0BA0104FF0FC04FE050E035
:1036900060E070E004C0440F551F661F771F8A95D5
:1036A000D2F74095509560957095812F86958695B7
:1036B0008370823019F1D8F4009122021091230214
:1036C0002091240230912502813069F04429552946
:1036D00066297729CB01BA016023712382239323C2
:1036E0000E94EF0700CF402A512A622A732ACB0199
:1036F000BA016429752986299729F2CF44295529C9
:103700006629772900912202109123022091240238
:1037100030912502CB01BA016027712782279327B8
:10372000DFCF8695DD2011F0812F8170882309F489
:10373000DACE802F829586958770880F880F602F4C
:103740006F70462E512C712C612C082E04C0440C35
:10375000551C661C771C0A94D2F740E050E0BA0171
:1037600004FF0FC04FE050E060E070E004C0440F81
:10377000551F661F771F8A95D2F740955095609523
:103780007095812F869586958370823019F1D8F4D3
:10379000009128021091290220912A0230912B02D7
:1037A000813069F04429552966297729CB01BA016E
:1037B00060237123822393230E94890794CE402A99
:1037C000512A622A732ACB01BA01642975298629F4
:1037D0009729F2CF44295529662977290091280293
:1037E0001091290220912A0230912B02CB01BA01BB
:1037F0006027712782279327DFCF1F70DD2029F0F4
:10380000812F0E94CE07802FD3CE802F0E943A07AF
:10381000812F0E94930767CE802F92EF891609F4BB
:1038200050C0981578F0E0EF8E1619F1F1EF8F1671
:1038300009F43FC0DD2009F467C0A11038CE812F04
:103840008F713CC023EF821609F440C034EF83121D
:10385000F1CFDD2009F44DC01F71812F0E94CE07EA
:10386000E8E01E9FC0011124836080931D02812F18
:1038700025C0DD20C9F084E08A1508F434CE1F711C
:1038800061E070E080E090E004C0660F771F881F61
:10389000991F1A95D2F700912802109129022091C0
:1038A0002A0230912B02A4CF95E09A1508F41BCE82
:1038B000E6CF812F8F71DD2009F4ABCF0E94CE07B8
:1038C00012CE812F8F71DD20C9F3A3CF60E070E0AD
:1038D000CB01DD2009F470CF1F7161E070E080E062
:1038E00090E004C0660F771F881F991F1A95D2F7C2
:1038F00063CF81E00E94B607F1E0FA1508F0F3CD3E
:1039000082E00E94B607EFCDAA2039F0893309F48E
:103910007ACE802F0E940508E6CD812F8F7179CF56
:1039200085E0DE01119601900D928A95E1F7F7018D
:10393000228189819A812111B5CA0E94DB06082F54
:10394000B9CA8272F801E35CFC45E431F10508F084
:1039500036CDE153F94D0C948025063F2CE5120736
:1039600009F4C0CB08F4BACB073F8CE5180709F47B
:1039700075C01092510302303CE5130708F492CC55
:1039800006318CE5180738F098012B5F3C4529304B
:10399000310508F087CC0E940B1290932D02809382
:1039A0002C0200319CE5190709F44BCC08F0DECB62
:1039B0000830FCE51F0709F43ACC08F0ADCB043021
:1039C0003CE5130709F42BCC08F093CB02309CE5BF
:1039D000190709F41ECC80912C02826003301C452B
:1039E00009F41ACC60912C0210912D0284E090E031
:1039F0000E941226612F81E290E00E9412260E940E
:103A00003F13EBCA043FECE51E0709F463CBD8F47F
:103A1000093D2CE5120709F459CB0A3D3CE5130793
:103A200009F464CB083D8CE5180709F48ACA06310D
:103A30001C4509F0CDCC8091DF0181114ACC89E28F
:103A40000E94B50641CC063FECE51E0709F44ACBBF
:103A500008F444CB073F2CE5120749F727E245EE6F
:103A600066EE72CA1F93CF93DF938091E501807F4A
:103A7000A9F48091E201882389F080911702D09106
:103A8000E6016091E0017091E101A091E301B09144
:103A9000E401C62FC72316E0D81304C0DF91CF91ED
:103AA0001F91089590E0109711F0CF3F19F40196FF
:103AB0008770F2CF189F9001199F300D1124F901E2
:103AC000E951FE4F41814713F2CF40814613EFCFBA
:103AD00042814111ECCF438154814A1B5B0B483C2E
:103AE000510528F78091E5018F7080618093E50191
:103AF000F901E451FE4F80818F708061808380EEF8
:103B000091E00E941A17DF91CF911F910C9430071A
:103B1000AF92BF92CF92DF92EF92FF920F931F93DB
:103B2000CF93DF93CDB7DEB761970FB6F894DEBFC2
:103B30000FBECDBF8C0185E0F801DE011D9601901E
:103B40000D928A95E1F7F80180819181E28020EE63
:103B5000A22E21E0B22E6091E3017091E401611583
:103B6000710509F43EC13091E0014091E101232F3C
:103B700024232F3F09F435C1C380D480F090E201A3
:103B8000F601E61BF70BFF2009F4FBC02091E501CD
:103B9000522F507FE83CF10508F0BBC0511178C0AE
:103BA000FE2C491321C038131FC0E1101DC02F7017
:103BB00020612093E501C5010E941A178091E5015B
:103BC000F80185838F2D61960FB6F894DEBF0FBE86
:103BD000CDBFDF91CF911F910F91FF90EF90DF90BC
:103BE000CF90BF90AF900895CD2829F0282F29239A
:103BF0002F3F09F014C120E0F22FF170DF2E20FFDB
:103C00003DC0209117024091E60156E0241315C0F3
:103C10008D879E878D859E850E94CB0B292F2295AF
:103C20002F702230F8F0243020F59F70F9F0F80161
:103C30009581907FD9F4D12C1FC030E0529FF001C4
:103C4000539FF00D1124E951FE4F6181961306C078
:103C50006081861303C06281E61210C02F5F3F4F60
:103C60002770D4CF9F7011F0882329F3805E8830AD
:103C700010F3C8010E941A17FD2CA4CFEE2009F4FE
:103C8000A1CF8091E50181608093E501F12C9ACF6D
:103C9000491312C0381310C0E1100EC0F80125837B
:103CA000C8010E941A1786E0F801A0EEB1E0019069
:103CB0000D928A95E1F786CF8D879E878D859E85AB
:103CC0000E94D50B882309F1EE20F9F08091E501DF
:103CD000803270F02091E0013091E10138872F832C
:103CE0001986DB86CA868C87CE0107960E941A1732
:103CF00086E0F801A0EEB1E001900D928A95E1F71F
:103D00000E94321DFF24F3945DCFC8010E941A1750
:103D1000F9CF51110AC080EE91E00E941A1786E097
:103D2000F50111928A95E9F7B1CF49130FC0381305
:103D30000DC0E1100BC0F8012583C8010E941A17BD
:103D400086E0F50111928A95E9F73CCF8D879E8731
:103D50008D859E850E94D50B8823B9F2EE20A9F2AD
:103D60008091E501803220F22091E0013091E10163
:103D70003A8329831B82DD82CC828E83CE01019619
:103D8000B5CFE83CF105E0F6FE2CEE2009F4BDCFFE
:103D9000491316C0381314C08091E50180FD83CF0C
:103DA000982F907F09F47FCFF8018583903F09F425
:103DB00077CF982F907F905F8F70892B858370CFFE
:103DC0008D879E878D859E850E94D50B811190CF12
:103DD0008091E50181608093E501C8010E941A1776
:103DE000F1CEEE2009F491CF8D879E878D859E853B
:103DF0000E94D50BF82E882309F487CF86E0F801BE
:103E0000A0EEB1E001900D928A95E1F78091E0017A
:103E10009091E1010E94CB0B0E94321DD3CE21E094
:103E20002E25EACE1F93CF93DF93CDB7DEB76797EA
:103E30000FB6F894DEBF0FBECDBF342F4B8B252FAE
:103E40005C8B6D8B7E8B8F8B8E899F89611110921D
:103E50001F021A8A198A3D872E876F87998B888B54
:103E600086E0FE013D96DE01179601900D928A953F
:103E7000E1F7CE0107960E94881D882389F016E09D
:103E8000809117029091E601891349C067960FB699
:103E9000F894DEBF0FBECDBFDF91CF911F91089583
:103EA00086E0FE013796DE01119601900D928A950B
:103EB000E1F78A859B85892B11F38F81988589236A
:103EC0008F3FE9F22091E60130E0C9010196877049
:103ED0009927409117024817190671F40E943F1361
:103EE0001092E6011092170286E0E0EEF1E0DF01A9
:103EF0001D928A95E9F7C3CF96E0929FD001939FD8
:103F0000B00D1124A951BE4FFE01319601900D92C2
:103F10009A95E1F78093E6010E943007B0CF819F28
:103F2000C001112489519E4F0E94881D882309F4E5
:103F3000ADCF8091170290E001968770992780930A
:103F400017029ECF1F920F920FB60F9211242F933C
:103F50003F934F935F936F937F938F939F93AF9311
:103F6000BF93CF93DF93EF93FF93D091E900DF707E
:103F70008091EC00C82FC17080FDC0E81092E9006C
:103F80008091F000877F8093F00078940E944A131C
:103F90001092E9008091F00088608093F000CD2BB2
:103FA000CF70C093E900FF91EF91DF91CF91BF9166
:103FB000AF919F918F917F916F915F914F913F91C1
:103FC0002F910F900FBE0F901F9018951F920F9278
:103FD0000FB60F9211242F933F934F935F936F93DC
:103FE0007F938F939F93AF93BF93EF93FF938091B2
:103FF000E10082FF09C08091E20082FF05C080914C
:10400000E1008B7F8093E1008091DA0080FF24C083
:104010008091D80080FF20C08091DA008E7F80934D
:10402000DA008091D90080FF9BC080E189BD82E1E8
:1040300089BD09B400FEFDCF81E0809354028091D8
:104040004702811109C00E94B9030E948404809133
:10405000E20084608093E2008091E10080FF17C05D
:104060008091E20080FF13C08091E2008E7F8093F8
:10407000E2008091E20080618093E2008091D800AC
:1040800080628093D80019BC85E0809354028091AF
:10409000E10084FF29C08091E20084FF25C080E117
:1040A00089BD82E189BD89B5982F917080FFFBCFD2
:1040B0008091D8008F7D8093D8008091E1008F7E21
:1040C0008093E1008091E2008F7E8093E2008091F6
:1040D000E20081608093E20080915502882309F418
:1040E00045C084E0809354028091E10083FF27C0A3
:1040F0008091E20083FF23C08091E100877F80935D
:10410000E10082E080935402109255028091E10018
:104110008E7F8093E1008091E2008E7F8093E200A9
:104120008091E20080618093E20042E060E080E004
:104130000E9452048091F00088608093F000FF910B
:10414000EF91BF91AF919F918F917F916F915F910F
:104150004F913F912F910F900FBE0F901F90189588
:1041600019BC109254021092470276CF8091E3005E
:1041700087FD93E090935402B7CFCDB7DEB72A976F
:104180000FB6F894DEBF0FBECDBF1092830210921F
:1041900085021092840280EC8093480386E892E0C6
:1041A00090934A0380934903109247031092460369
:1041B00010926302109262021092650210926402E1
:1041C00010926702109266021092690210926802C1
:1041D00010926B0210926A0210926D0210926C02A1
:1041E00010926F0210926E02109271021092700281
:1041F0001092730210927202109275021092740261
:104200001092770210927602109279021092780240
:1042100010927D0210927C028FE695E090935F02EF
:1042200080935E028AEC95E090937F0280937E02F9
:1042300086E495E090937B0280937A0287E495E090
:10424000909361028093600284B7877F84BF0FB62A
:10425000F894A89580916000886180936000109226
:1042600060000FBE80E890E00FB6F8948093610084
:10427000909361000FBE85B7806885BF85B7806861
:1042800085BF84E495E090939B0180939A010E94FE
:10429000B9030E9484048091E20084608093E2006C
:1042A0007894809154028823A1F01091E9001F7046
:1042B0009091EC00892F817090FD80E8182B10926E
:1042C000E9008091E80083FD0E944A131F7010935B
:1042D000E90082E084BD93E095BD9AEF97BD80939D
:1042E0006E0086E60E947F0987E90E947F0981E9C6
:1042F0000E947F0980E90E947F0984E90E947F096A
:104300001092260210923402109227021092350267
:104310000E94BA108FE39CE90197F1F700C00000FA
:104320000E94BA108091340280FF08C06FEF7FEFC7
:1043300090E080E00E9430260E94610C0E941912D9
:10434000811102C00E946116879A8F9882E0809343
:10435000800089E1809381008FEF9FEF9093870029
:10436000809386000E94DC160E941912811102C0FF
:104370000E94611682E090E00E94FE258093440234
:104380000E940B1290932D0280932C0283E090E008
:104390000E94FE25682F70E090E080E00E94EF0709
:1043A0000E94DC1680912E02811133C00E941912E6
:1043B000811104C00E9461160E942F1388E090E0D2
:1043C0000E94062660933C0270933D0280933E0259
:1043D00090933F026E7F71F40E942F1388E090E06B
:1043E0000E94062660933C0270933D0280933E0239
:1043F00090933F020E94D0081092420280913C02AA
:1044000080FF04C060E086950E94231681E08093BF
:104410002E028EE191E09093300280932F0258E1BA
:10442000A52EB12C60E4562E7724739466246394F1
:10443000CC24C394D12C8091540210E102E1853048
:1044400009F4ABC00E94BA10882359F08FB7F894D2
:1044500040914B0350914C0360914D0370914E037A
:104460008FBF8091340290914502981761F0982790
:10447000292F2170F22E90FDADC0292F227091FDC1
:1044800052C192FD57C18091350290914602981712
:1044900069F09827E92FE170FE2E90FD51C191FD42
:1044A00054C101E010E021E092FD46C18FEF8E8300
:1044B0008F8318860E9476068160782F9A87898775
:1044C0004E815F8168858A850E94121FA0C08091FD
:1044D0005402843009F440C080E00E945B081092CE
:1044E000420280913302811116C0609233028091A2
:1044F0003C02982F9170909332028E7F80933C0201
:104500009FEFE0E7F2E09150E040F040E1F700C0BB
:1045100000000E94A00D109231020FB6F894A895E9
:10452000A09260000FBE5092600083B7817F8460CC
:1045300083BF83B7816083BF7894889583B78E7F6C
:1045400083BF0FB6F894A89580916000886180932E
:104550006000109260000FBE809153028823E9F042
:104560000E94BA108091340290913502892BA9F0F3
:1045700019BD09BD09B400FEFDCF8091D8008F7D23
:104580008093D8008091E00082608093E000809169
:10459000E00081FDFCCF0E943F13809154028530E2
:1045A00009F495CF0E943F130E94DC160E94F90780
:1045B0001092330280913202882349F080913C02AC
:1045C000816080933C0260E086950E9423160E94E1
:1045D0000D1638CF20E090E010E000E099832A83A8
:1045E0008F2191E009F490E09B830E947606816020
:1045F000782F9D838C8349815A816B818D810E94A4
:10460000121FF801EB5BFD4F8081F826F08280914C
:1046100042028823D1F180914102E0913C02E6956B
:10462000E81BE0933802823009F093C0F0E0EF55C8
:10463000FC4FE4910E2F10E0B6E9EB2EB0E1FB2E1B
:1046400080913902882361F0109239020E94760627
:10465000909337028093360210923B0210923A02F6
:104660000E947606E0913602F09137028E1B9F0B76
:104670008F3F9F4750F4E00FF11FF0933702E09314
:10468000360286E392E0F7010995E0917E02F0910F
:104690007F02309719F08EE592E009959FB7F89464
:1046A0000091470380914603081708F4BEC0081B19
:1046B0009FBFF12CE12C10E083E0882E912C94E038
:1046C000392EE016F10608F4B4C00E94F907909163
:1046D0004302891721F00E94F907809343028091D9
:1046E0005402843009F0A7CE809113018F7080931B
:1046F000E9009091E80090FF9BCE90915402943095
:1047000009F096CE8093E9009091F3008091F20039
:10471000892B09F48DCE8091E8008E778093E80094
:104720000E94D80385CE20E010E000E092E0F92E50
:1047300091E054CF10E000E034E0F32E92E04ECF51
:104740002E2F90E001E010E049CF01E010E021E0E1
:10475000EDCF863059F4F0E0E256FC4FE4910E2F95
:1047600010E0AAEAEA2EA0E1FA2E6ACF893061F4BD
:10477000E695F0E0E556FC4FE4910E2F10E0F4E8EA
:10478000EF2EFEE0FF2E5CCF8F3061F4E695F0E077
:10479000E856FC4FE4910E2F10E0EEEAEE2EEEE02C
:1047A000FE2E4ECF853159F4F0E0EB56FC4FE491EC
:1047B0000E2F10E07CE1E72E7FE0F72E41CF08E2DC
:1047C00010E04AE6E42E4FE0F42E883109F438CFA9
:1047D000833249F4E3E9F3E0059114916DE3E62EA9
:1047E00060E1F62E2DCF04EF11E033EFE32E3FE032
:1047F000F32E843209F424CF00ED17E023E4E22EF7
:1048000025E0F22E853209F01BCF8E2F63E00E9447
:104810003E25E92FF0E0E057FC4FE4910E2F10E029
:1048200055EDE52E5DE0F52E0BCF20914803020FEC
:104830003ECF8091460390E06091480370E00E9473
:104840006C252091490330914A03280F391FF90143
:10485000408020908302F7EFF415E8F47092830211
:1048600020E040E0642D81E090E00E94C7022092A9
:1048700083022FB7F8948091460390E001966091EF
:10488000480370E00E946C25809346032FBFFFEF22
:10489000EF1AFF0A16CF47FE52C024E0221631F06D
:1048A00040928002D0928502C0928402842D0E94A0
:1048B0004C05813069F08823D1F08230A9F0833033
:1048C00099F0109283021092850210928402D1CF47
:1048D0008093830220E040E0642D81E090E00E941C
:1048E000C70210928302C5CF80938302C2CF80EFAC
:1048F0004816E1F097EF4912E4CF209184023091FD
:104900008502C901B4010E945825FC01E25AFD4FFD
:1049100042A2C9010196909385028093840220915E
:1049200082024091810260918002D9CF309283024D
:1049300040928002D0928502C09284029ACF2220B7
:1049400009F497CF2091840230918502C901B40106
:104950000E945825AC01FC01E25AFD4F42A2C90158
:10496000019690938502809384024130510589F02D
:104970004230510509F07DCF2091820240918102A1
:10498000609180020E94C70280918302843091F678
:1049900070CFE2E020E02E126CCFF0CF78941F921F
:1049A0001FB61F9211248F939F93AF93BF93809153
:1049B0004B0390914C03A0914D03B0914E0301968F
:1049C000A11DB11D80934B0390934C03A0934D0305
:1049D000B0934E03BF91AF919F918F911F901FBED7
:1049E0001F9018951F921FB61F9211248F939F93AB
:1049F000AF93BF9380913102811113C080914B031B
:104A000090914C03A0914D03B0914E034196A11D8E
:104A1000B11D80934B0390934C03A0934D03B0932F
:104A20004E03BF91AF919F918F911F901FBE1F901A
:104A300018952F932FB72F938F939F938091880072
:104A4000909189008130914008F08F9A9F918F91C9
:104A50002F912FBF2F9118958F981895DB018F9369
:104A60009F930E946526BF91AF91A29F800D911DDB
:104A7000A39F900DB29F900D11240895991B79E08A
:104A800004C0991F961708F0961B881F7A95C9F7DE
:104A90008095089587FB082E062687FD819567FD82
:104AA00061950E943E250EF4919507FC819508952D
:104AB000AA1BBB1B51E107C0AA1FBB1FA617B70744
:104AC00010F0A61BB70B881F991F5A95A9F7809560
:104AD0009095BC01CD01089597FB072E16F4009424
:104AE00007D077FD09D00E94582507FC05D03EF479
:104AF000909581959F4F0895709561957F4F08958A
:104B0000EE0FFF1F0590F491E02D09940E949A2664
:104B1000332312F48A1B9B0B0C9490250E949A2637
:104B2000B7FF0895821B930B08958F929F92AF92C7
:104B3000BF92CF92DF92EF92FF92CF93DF93EC017F
:104B4000688179818A819B81611571058105910553
:104B500021F464E279ED8BE597E02DE133EF41E05C
:104B600050E00E94462649015A019B01AC01A7EA88
:104B7000B1E40E9465266B017C01ACEEB4EFA501A7
:104B800094010E947326DC01CB018C0D9D1DAE1D8E
:104B9000BF1DB7FF03C00197A109B048888399835F
:104BA000AA83BB839F77DF91CF91FF90EF90DF9037
:104BB000CF90BF90AF909F908F9008950E949525C1
:104BC000089580E091E00E9495250895B0E0A0E06E
:104BD0008093000190930101A0930201B09303011F
:104BE0000895FC014150504030F001900616D1F775
:104BF0003197CF010895882799270895F999FECF15
:104C000092BD81BDF89A992780B50895A6E1B0E0DC
:104C100044E050E00C943826A8E1B0E042E050E0D7
:104C20000C943826262FF999FECF92BD81BDF89AB3
:104C3000019700B4021639F01FBA20BD0FB6F894E0
:104C4000FA9AF99A0FBE08950396272F0E94132609
:104C50000E941226252F0E941326242F0C9413261F
:104C60000196272F0E9413260C941226DC01CB01FB
:104C7000FC01F999FECF06C0F2BDE1BDF89A31966C
:104C800000B40D9241505040B8F70895052E97FB9F
:104C90001EF400940E945D2657FD07D00E947826DE
:104CA00007FC03D04EF40C945D265095409530954A
:104CB00021953F4F4F4F5F4F089590958095709588
:104CC00061957F4F8F4F9F4F08950E949A26A59F11
:104CD000900DB49F900DA49F800D911D11240895F7
:104CE000B7FF0C9465260E946526821B930B0895DE
:104CF000A1E21A2EAA1BBB1BFD010DC0AA1FBB1FE0
:104D0000EE1FFF1FA217B307E407F50720F0A21B51
:104D1000B30BE40BF50B661F771F881F991F1A94BE
:104D200069F760957095809590959B01AC01BD01E8
:104D3000CF010895A29FB001B39FC001A39F700D42
:104D4000811D1124911DB29F700D811D1124911D93
:104D50000895F894FFCFE40BE40BED0BED0BEF0B94
:104D6000ED0BED0BED0BE40BE40BF40BED0BED0B8E
:104D7000F40B2D145514F5155514F5158814A914B4
:104D8000F515A615B3153E1A3E1AB71AB71A0D1B1C
:104D9000731A731A731A271BFD1B0C1C0C1C6B193E
:104DA000911998199D19A219A719AC19B119B61919
:104DB000BB19C019C519C719CC19CF19D219D519E2
:064DC000D819DA19DD1913
:104DC6000100000001191A1B1C1D1E1F20212201B3
:104DD6000201038340000001044000000100490570
:104DE600340C4805300C2C0C0100010202020206AC
:104DF60006060909090909090F0F0F0F0F0F1515E7
:104E060015181919191919191919191923242525E4
:104E160025252525818283E200E900EA00B500B652
:104E260000B700CD008301CC008A019201940121D4
:104E360002230224022502260227022A02B300B414
:104E4600006F007000020302000001000101010171
:0A4E5600010001016697919094009D
:00000001FF
